{
  "_format": "hh-sol-artifact-1",
  "contractName": "Verifier",
  "sourceName": "contracts/verifier.sol",
  "abi": [
    {
      "inputs": [
        {
          "internalType": "uint256[2]",
          "name": "a",
          "type": "uint256[2]"
        },
        {
          "internalType": "uint256[2][2]",
          "name": "b",
          "type": "uint256[2][2]"
        },
        {
          "internalType": "uint256[2]",
          "name": "c",
          "type": "uint256[2]"
        },
        {
          "internalType": "uint256[80]",
          "name": "input",
          "type": "uint256[80]"
        }
      ],
      "name": "verifyProof",
      "outputs": [
        {
          "internalType": "bool",
          "name": "r",
          "type": "bool"
        }
      ],
      "stateMutability": "view",
      "type": "function"
    }
  ],
  "bytecode": "0x608060405234801561001057600080fd5b50615360806100206000396000f3fe608060405234801561001057600080fd5b506004361061002b5760003560e01c8063c3fa27f214610030575b600080fd5b61004a60048036038101906100459190614d11565b610060565b6040516100579190614e57565b60405180910390f35b600061006a614a1c565b6040518060400160405280876000600281106100af577f4e487b7100000000000000000000000000000000000000000000000000000000600052603260045260246000fd5b60200201518152602001876001600281106100f3577f4e487b7100000000000000000000000000000000000000000000000000000000600052603260045260246000fd5b602002015181525081600001819052506040518060400160405280604051806040016040528088600060028110610153577f4e487b7100000000000000000000000000000000000000000000000000000000600052603260045260246000fd5b6020020151600060028110610191577f4e487b7100000000000000000000000000000000000000000000000000000000600052603260045260246000fd5b60200201518152602001886000600281106101d5577f4e487b7100000000000000000000000000000000000000000000000000000000600052603260045260246000fd5b6020020151600160028110610213577f4e487b7100000000000000000000000000000000000000000000000000000000600052603260045260246000fd5b60200201518152508152602001604051806040016040528088600160028110610265577f4e487b7100000000000000000000000000000000000000000000000000000000600052603260045260246000fd5b60200201516000600281106102a3577f4e487b7100000000000000000000000000000000000000000000000000000000600052603260045260246000fd5b60200201518152602001886001600281106102e7577f4e487b7100000000000000000000000000000000000000000000000000000000600052603260045260246000fd5b6020020151600160028110610325577f4e487b7100000000000000000000000000000000000000000000000000000000600052603260045260246000fd5b6020020151815250815250816020018190525060405180604001604052808560006002811061037d577f4e487b7100000000000000000000000000000000000000000000000000000000600052603260045260246000fd5b60200201518152602001856001600281106103c1577f4e487b7100000000000000000000000000000000000000000000000000000000600052603260045260246000fd5b602002015181525081604001819052506000605067ffffffffffffffff811115610414577f4e487b7100000000000000000000000000000000000000000000000000000000600052604160045260246000fd5b6040519080825280602002602001820160405280156104425781602001602082028036833780820191505090505b50905060005b60508110156104e75784816050811061048a577f4e487b7100000000000000000000000000000000000000000000000000000000600052603260045260246000fd5b60200201518282815181106104c8577f4e487b7100000000000000000000000000000000000000000000000000000000600052603260045260246000fd5b60200260200101818152505080806104df90615105565b915050610448565b5060006104f48284610514565b14156105055760019250505061050c565b6000925050505b949350505050565b6000807f30644e72e131a029b85045b68181585d2833e84879b9709143e1f593f00000019050600061054461079f565b90508060800151516001865161055a9190614fda565b1461059a576040517f08c379a000000000000000000000000000000000000000000000000000000000815260040161059190614e72565b60405180910390fd5b60006040518060400160405280600081526020016000815250905060005b86518110156106fb57838782815181106105fb577f4e487b7100000000000000000000000000000000000000000000000000000000600052603260045260246000fd5b602002602001015110610643576040517f08c379a000000000000000000000000000000000000000000000000000000000815260040161063a90614eb2565b60405180910390fd5b6106e6826106e1856080015160018561065c9190614fda565b81518110610693577f4e487b7100000000000000000000000000000000000000000000000000000000600052603260045260246000fd5b60200260200101518a85815181106106d4577f4e487b7100000000000000000000000000000000000000000000000000000000600052603260045260246000fd5b6020026020010151613cd1565b613e20565b915080806106f390615105565b9150506105b8565b5061074b81836080015160008151811061073e577f4e487b7100000000000000000000000000000000000000000000000000000000600052603260045260246000fd5b6020026020010151613e20565b905061078161075d8660000151613fbb565b8660200151846000015185602001518587604001518b604001518960600151614060565b6107915760019350505050610799565b600093505050505b92915050565b6107a7614a4f565b60405180604001604052807f15c63bdf36e90a56bf8f189b73930cfc2afcb0c04ba1a798b2f0957895dc169481526020017f2f96e635957522e9d3763c992df5c8723e317cf2d87ff2fdec8fd750769f77938152508160000181905250604051806040016040528060405180604001604052807f23e192011a96058b361840d4d24ff39ec34ef016f55334ab7ee519bf6cb7fef681526020017f058396ad0fde67f22cd1384bf06ab5901cfb900dcaf8aebfbb1fef5883ffdb1e815250815260200160405180604001604052807f0a3fec0ba7b49771cabce9256cc00ee7a424fcde217e06a189b280a107e63f8c81526020017f144b6969b0a380d694e45e9441d2ba577fa8e7a556606ee1f09a2a6dbef0d3988152508152508160200181905250604051806040016040528060405180604001604052807f198e9393920d483a7260bfb731fb5d25f1aa493335a9e71297e485b7aef312c281526020017f1800deef121f1e76426a00665e5c4479674322d4f75edadd46debd5cd992f6ed815250815260200160405180604001604052807f090689d0585ff075ec9e99ad690c3395bc4b313370b38ef355acdadcd122975b81526020017f12c85ea5db8c6deb4aab71808dcb408fe3d1e7690c43d37b4ce6cc0166fa7daa8152508152508160400181905250604051806040016040528060405180604001604052807f07735318600f54a4ff226234f1b64532f87830c6986a2ef1573847fd40570edb81526020017e74f878e501d2c4ae16671ccdd1542fdd1d3b99211d9edd6b1e13ff0693fbb3815250815260200160405180604001604052807f11fda81fe1e6a4a139810b340d1ce385fee0fff80824407dc8eb65c2b362eaee81526020017f04659500bb8cc5d09131d834a5ffa4e1d6b8c8e5a07a1b4f6438011ca95854908152508152508160600181905250605167ffffffffffffffff811115610a93577f4e487b7100000000000000000000000000000000000000000000000000000000600052604160045260246000fd5b604051908082528060200260200182016040528015610acc57816020015b610ab9614a96565b815260200190600190039081610ab15790505b50816080018190525060405180604001604052807f24d916864ce9725e2bfb8deb834681c30b767a6d7d34d3504ed4290c0a0c926e81526020017f1fc115c6a64686e05c550e536c28f6e81e60b819d632d6fcc1d116151cb156908152508160800151600081518110610b68577f4e487b7100000000000000000000000000000000000000000000000000000000600052603260045260246000fd5b602002602001018190525060405180604001604052807f19d0a703705c1428431c2c0b4c183a3a201f4f31b13ec7298babc18e80351df781526020017f2473c65729d1ec7a9d92d9ac076119289e786a3159dd728ff1b59694a066bf908152508160800151600181518110610c06577f4e487b7100000000000000000000000000000000000000000000000000000000600052603260045260246000fd5b602002602001018190525060405180604001604052807f15f4a916a53f0997f7c8048fbebe4ba9b06ef4dbdb6320c29097ce025a125c6181526020017f145255f9a44712af8ea1df70e4e111519968231603acbbf776f8315be2213fb48152508160800151600281518110610ca4577f4e487b7100000000000000000000000000000000000000000000000000000000600052603260045260246000fd5b602002602001018190525060405180604001604052807f29a34c07ed965997139481002fa02053705483259741c1a0144c8f0f3856cbae81526020017f1c8fb7b274dbe51e3177feac0e77f9c0594dac52193d740683c8c4cc6a4730ea8152508160800151600381518110610d42577f4e487b7100000000000000000000000000000000000000000000000000000000600052603260045260246000fd5b602002602001018190525060405180604001604052807f2fdfde81bbc0fbe5859b909ef9ba3c77bdfce6b6b593ea7b82f8a30640d5089881526020017f1c7ec4420dd3c1f0b516ad5ef3fcea7c3d709d2e34a05e2ea4b8e539aabf20c58152508160800151600481518110610de0577f4e487b7100000000000000000000000000000000000000000000000000000000600052603260045260246000fd5b602002602001018190525060405180604001604052807f252b6e608bbca748531ac7cb6df556c27ca09dca5d1fe1f0696d5a1b39431f4781526020017f23c963a8c9f1ac9a63244ebfea683292a6c5d5752a09709de304e86373bb11ef8152508160800151600581518110610e7e577f4e487b7100000000000000000000000000000000000000000000000000000000600052603260045260246000fd5b602002602001018190525060405180604001604052807e03a3b347ccf60dea26f4b58b69c4a95de96858fae414fd07b7f2a13a7dd59b81526020017f194d474f29feb49880046997010100055a11a24111abdd996be449bd9ef11ea78152508160800151600681518110610f1b577f4e487b7100000000000000000000000000000000000000000000000000000000600052603260045260246000fd5b602002602001018190525060405180604001604052807f055055a02ca6c85ee0c7b1f68af10c35e3b2764375bbbee7f739c141ccad4a3f81526020017f08a6d72b3ccd7541d145d6e3368743a6d195ba298de48d788c3bb4017d6ba0638152508160800151600781518110610fb9577f4e487b7100000000000000000000000000000000000000000000000000000000600052603260045260246000fd5b602002602001018190525060405180604001604052807f19ad6ae7bbca0458c52a94907f4232610344befa493b0f7f69b190db170ddac981526020017f233fd26dc63deaf1dc7aecd2edd58c03dc728fac2f0878ee50f26dbee807072f8152508160800151600881518110611057577f4e487b7100000000000000000000000000000000000000000000000000000000600052603260045260246000fd5b602002602001018190525060405180604001604052807f1bdd08e92a48719664f946efaebd0928189d59f49713ca347ba4aa0e57012b6981526020017f0240483457746e05ae1d2345a48ef5c734055f9fe43fb8818b8e511f32144d8281525081608001516009815181106110f5577f4e487b7100000000000000000000000000000000000000000000000000000000600052603260045260246000fd5b602002602001018190525060405180604001604052807f2ed8abf34eacf093e72e79e5787b358063a6f3feea5ff5b3679822497045f39881526020017f23b0e2682d42d7152e23147025bace251d9dd7fba231e1bae6140802b6ceec3b8152508160800151600a81518110611193577f4e487b7100000000000000000000000000000000000000000000000000000000600052603260045260246000fd5b602002602001018190525060405180604001604052807f28a75e4c1840f871722e6d8911f37e45b2d40c2b204023d2c483ca4c727c4f9c81526020017f034ccd9be2a36b42d42024a3a3b2e3d4eb922e72844473ef56826e7740ff507b8152508160800151600b81518110611231577f4e487b7100000000000000000000000000000000000000000000000000000000600052603260045260246000fd5b602002602001018190525060405180604001604052807f275ef7e69dd83747b4a6a057a1e8cc2e5677a02985a060c35e24b9b233494a8381526020017f18a174dd49f11aaf3faa023249e42501b1b9b3e7f0cc3dfd71364f22afc968978152508160800151600c815181106112cf577f4e487b7100000000000000000000000000000000000000000000000000000000600052603260045260246000fd5b602002602001018190525060405180604001604052807f12269e6766c8b85b68cd44db0cdbd8bbb6cdae25ca40c88fbd8b6556ea489ea781526020017f2cd3983355100cb33e61924b683d876b780f1a697590ccf7f904f31609765ba88152508160800151600d8151811061136d577f4e487b7100000000000000000000000000000000000000000000000000000000600052603260045260246000fd5b602002602001018190525060405180604001604052807f13ffc07ac041b1692d8ee390e4764fa8c52079f0195e175ea274174eaef2bcba81526020017f2ba1c913edbba55fe974021f07c9d426d6e7d66c4aac5de4f58eb583040997e48152508160800151600e8151811061140b577f4e487b7100000000000000000000000000000000000000000000000000000000600052603260045260246000fd5b602002602001018190525060405180604001604052807f025f55f8a653e7cd2eeae4373c09588f6145ef6379042064d7e19d00665e774981526020017f25bd6ac6c71d0bd0905b12eaf59e69a134082c7f5718429df65b0885e09504738152508160800151600f815181106114a9577f4e487b7100000000000000000000000000000000000000000000000000000000600052603260045260246000fd5b602002602001018190525060405180604001604052807f11a26c7f73bceabcdd3bc6e871e2a4074613ed9f647a5ff963619898d76db85881526020017f0b17f46aec347afba7cd51b03e491c065731433c11ba49ea9a1ddc101943e10b8152508160800151601081518110611547577f4e487b7100000000000000000000000000000000000000000000000000000000600052603260045260246000fd5b602002602001018190525060405180604001604052807f1048ed4a17049ae0f4125d0d1564b90bb131945e4a7ecce34e2c66dc7646b81581526020017f1b10fc323374606720f6f34e97f1d535f62349157ed94821d316dd240d7f678581525081608001516011815181106115e5577f4e487b7100000000000000000000000000000000000000000000000000000000600052603260045260246000fd5b602002602001018190525060405180604001604052807f057a34638cbc3c318b41fa53ec09df61c2671e4d45117c6b0a94f3a3aefd5f7581526020017f25acb940e60620e7bb5143316b9d79eb07115d2c3d823677b095dec8b5e531b68152508160800151601281518110611683577f4e487b7100000000000000000000000000000000000000000000000000000000600052603260045260246000fd5b602002602001018190525060405180604001604052807f22867ab2b489212c64f67f69c01e8ae1dd438668a9a0782542ea73d5e517d73e81526020017f2f5eabefa1230364c86a92562358ac518470ee57a723ad1db42835960dd7cfbc8152508160800151601381518110611721577f4e487b7100000000000000000000000000000000000000000000000000000000600052603260045260246000fd5b602002602001018190525060405180604001604052807f2a63faf1ae23324bfd46ac058e22e9166489aea7f8d86f668de7efff6c3dbd3681526020017f2edb04125364158603e155e6187e8a92de50769df8cb2f9c47a876fc782ab9e281525081608001516014815181106117bf577f4e487b7100000000000000000000000000000000000000000000000000000000600052603260045260246000fd5b602002602001018190525060405180604001604052807f09e7a21a27b60856ac7be8df6b55194f92dd6c32e40de86309d76c296e6ed4af81526020017f1be62b1fb76047781abc4727b808ab5a0da83de5f65b0ac8e8309bedfbf0961c815250816080015160158151811061185d577f4e487b7100000000000000000000000000000000000000000000000000000000600052603260045260246000fd5b602002602001018190525060405180604001604052807e149584ceb970c35afb4d1dad19217c931235b457fa3bcdc6a2cf735a1fcf9b81526020017f1aa5a634abf101cb534531ba9747859a0f4fb422fb2eb907774c9d6bf510211481525081608001516016815181106118fa577f4e487b7100000000000000000000000000000000000000000000000000000000600052603260045260246000fd5b602002602001018190525060405180604001604052807f298ea9161a204253d9b75d99d50d5c6a24f0f75033604e1ffb0d7109ff86194e81526020017f17d8300e0cb239d05430036acd4fb4446a4e94d8b593189d6825d656da3ec2eb8152508160800151601781518110611998577f4e487b7100000000000000000000000000000000000000000000000000000000600052603260045260246000fd5b602002602001018190525060405180604001604052807f1e789cfbf2c67633a16270e7f6fc881f9cb3943e38f8975bb39e832e55511adc81526020017f1a2bb29f6524671486de328759177e9517abf91516a9ff0ea370bd6b479c1b6a8152508160800151601881518110611a36577f4e487b7100000000000000000000000000000000000000000000000000000000600052603260045260246000fd5b602002602001018190525060405180604001604052807f2c82020b392eb90458f3af9225a05619396561fc418e6b510abd0ff3f491b56781526020017f0f75713d3e664add1a56c75d14a75f7ea0d1998f7df1fe150d414c51e623e48a8152508160800151601981518110611ad4577f4e487b7100000000000000000000000000000000000000000000000000000000600052603260045260246000fd5b602002602001018190525060405180604001604052807f136bd098be0b8626f2dbd32d2b39e0116ba02bc891948da06a6f62976ff6acfa81526020017f2931d2cf476ee77b2d2c60271a7d9d2fc5a18371eda8b468a5fca971a77edd378152508160800151601a81518110611b72577f4e487b7100000000000000000000000000000000000000000000000000000000600052603260045260246000fd5b602002602001018190525060405180604001604052807f244de600d2f579036d9ffce1eae6a3b9a091d903bbafa80c9d046d54724a390081526020017f09bea1db72b1bbb25882a5d528475a45a123cd4cc62f83f3477f1e73c17ab6668152508160800151601b81518110611c10577f4e487b7100000000000000000000000000000000000000000000000000000000600052603260045260246000fd5b602002602001018190525060405180604001604052807f1e94c1a80b11cc7b913a8f9447d1e045d2488106185b37fcd0d9aae404592b8481526020017f2b56f1a0ea0bfa18d034a15f8f2ea4d92f8057fa73d7a88ac05d06cac28aea9c8152508160800151601c81518110611cae577f4e487b7100000000000000000000000000000000000000000000000000000000600052603260045260246000fd5b602002602001018190525060405180604001604052807f0a1411a4ac98778661824549cdb9a521e8c7f67871a5011b62a14912750e6d1381526020017f094b62d38596ba86e40f4804850977d67524c358db87da0c2d4a50167b562f718152508160800151601d81518110611d4c577f4e487b7100000000000000000000000000000000000000000000000000000000600052603260045260246000fd5b602002602001018190525060405180604001604052807f05ca4649fb8d6d6fb0639a61726674c407bde052f891ae4615cfcb18b890b72781526020017f2c4a9297d7b2a10c5ba1bf49ba7e5fc9db0bc0181d3da96d38ceb3962bd8800c8152508160800151601e81518110611dea577f4e487b7100000000000000000000000000000000000000000000000000000000600052603260045260246000fd5b602002602001018190525060405180604001604052807f120f1c65199492b3597bdea6effa3be9d71ce1cbd0597e50038bcc855f63965c81526020017f144ce7b33a4b4ad1410f2bf0439014614609a3b5a3164384a9bd516f226e4bf98152508160800151601f81518110611e88577f4e487b7100000000000000000000000000000000000000000000000000000000600052603260045260246000fd5b602002602001018190525060405180604001604052807f1e36d4af51041950f582aa2aaaadbd24b4ed01b7907fca79e4eedaa41936c06281526020017f2e108e5ddff1f569f4418e33620ff51fba38328bf038d236f4abcb2f21aee1ac8152508160800151602081518110611f26577f4e487b7100000000000000000000000000000000000000000000000000000000600052603260045260246000fd5b602002602001018190525060405180604001604052807f10b5290a6c151cd440a8d6032f7c0f0394403fcd24939796f459f184342153e681526020017f17256fa9fb91799bd9ae5f64656974c269ad8322b1ddb4bd67079dd4457e77fc8152508160800151602181518110611fc4577f4e487b7100000000000000000000000000000000000000000000000000000000600052603260045260246000fd5b602002602001018190525060405180604001604052807f21bc105e7f25331fb000954587d8c6a040ad0f41b55bfb9023616e1e4264a4d981526020017f2e0a0051fec87ef352fd5550d6bf93b1c1cc055a58dc42dbcf6b794828c48f958152508160800151602281518110612062577f4e487b7100000000000000000000000000000000000000000000000000000000600052603260045260246000fd5b602002602001018190525060405180604001604052807f0d825caf1372a53b3d58e48655f4a1257f3c6a642d551f8f5eeec373c9af1f1181526020017f206b1be3e05d514291b4d22f6a8b9298cbab4f1a0493d5bd6e6200894ad700838152508160800151602381518110612100577f4e487b7100000000000000000000000000000000000000000000000000000000600052603260045260246000fd5b602002602001018190525060405180604001604052807f29d66db90b5b9fec0229d51d48a32714051051e5ce0e1ea416d84bb377bd49d881526020017f23966540eaf00c9dd880c1d86872046c31ed9aadc56742c52a46426117e5e1f3815250816080015160248151811061219e577f4e487b7100000000000000000000000000000000000000000000000000000000600052603260045260246000fd5b602002602001018190525060405180604001604052807f29f56b33664cf58236b07670db53f81004b977223a8b55b02802363fe1026fbd81526020017f224155b88175747bb1aa1a597fdd7a0bf83eee637123e2c55c754e8c869458f1815250816080015160258151811061223c577f4e487b7100000000000000000000000000000000000000000000000000000000600052603260045260246000fd5b602002602001018190525060405180604001604052807f0990113921de8a5ff8c9548da4f58dcb2daa826eec7dcff051a3e71ce5a84e4281526020017f0fcd713baa6fad603f34c3644180f8e75fa5a57dccd69537ca646ab42c4b2c5281525081608001516026815181106122da577f4e487b7100000000000000000000000000000000000000000000000000000000600052603260045260246000fd5b602002602001018190525060405180604001604052807f136706a1340c16775578decf590b4b8c9bb47a16f9364e97d72ae959d96cb67781526020017f19ec7ad55e4cd41af22f6b6c07b45248900c5ccebbd215cf17b1fe227e11a5f98152508160800151602781518110612378577f4e487b7100000000000000000000000000000000000000000000000000000000600052603260045260246000fd5b602002602001018190525060405180604001604052807f0a1c1a0daead52975f07e06ec8479114ee77ab5c039c608edc2e9e8184854e7e81526020017f1342658dfd0e1668bf6567b62df95abcb74e582c12cff223e3d6ab5e30f8dcc48152508160800151602881518110612416577f4e487b7100000000000000000000000000000000000000000000000000000000600052603260045260246000fd5b602002602001018190525060405180604001604052807f14c689594270d2d37f84937037e9b246666bb7f6b561cf87ee4369bbefc1621781526020017f2f93b37b91199efb38969f3e7a9712a912386542c4d875af1317377807c20e1481525081608001516029815181106124b4577f4e487b7100000000000000000000000000000000000000000000000000000000600052603260045260246000fd5b602002602001018190525060405180604001604052807f22b76b6396c9e4e114e21cd78e8f351ce958c4620179d3f0beea39dbae8ed20b81526020017f03b08f15032210a76ab47fb66c66054e83b9d2863cda292fea8176c4d170b9e88152508160800151602a81518110612552577f4e487b7100000000000000000000000000000000000000000000000000000000600052603260045260246000fd5b602002602001018190525060405180604001604052807f28bb36b3b84c35816b15677a2606e134998996cbe0ebd66feca8b653f85faff781526020017f173f682d1e00b7c7474c394d6de19c8f8113dce30132dd1cfc61f78c8023581c8152508160800151602b815181106125f0577f4e487b7100000000000000000000000000000000000000000000000000000000600052603260045260246000fd5b602002602001018190525060405180604001604052807f1e3b6b7a2e578858cd01b5de90200cb7191905c74271a41c640442bd6fdc542681526020017f122e795b938fcddd0408627027121acbce53455b5053b27e48cb35ba03bbc6738152508160800151602c8151811061268e577f4e487b7100000000000000000000000000000000000000000000000000000000600052603260045260246000fd5b602002602001018190525060405180604001604052807f0dda6662388be27e9c23cdc60c1ecb9d3d2c23f291de73c934ce8f224ce300be81526020017f18a5c6b573a9e30546ad9e379b666e1ccc34b5f5b8d893689dc1f4a84f5bf4598152508160800151602d8151811061272c577f4e487b7100000000000000000000000000000000000000000000000000000000600052603260045260246000fd5b602002602001018190525060405180604001604052807f21a816453e56a9d21ee6a1cc8bb8b1b4fc78526e7170d2abba47662c89630ffb81526020017f0665ea247b85040070f1347d68aa8c22fc544e798d10aa3e64b1d27e59da2d458152508160800151602e815181106127ca577f4e487b7100000000000000000000000000000000000000000000000000000000600052603260045260246000fd5b602002602001018190525060405180604001604052807f2cacd3d2e8ebc6220f25f1ef45626fad8af75fece50b18723e766d8a88c70ade81526020017f210a4ae7d4f586b913b191c36fcdaae22834413045af885e45b227aa069fbe468152508160800151602f81518110612868577f4e487b7100000000000000000000000000000000000000000000000000000000600052603260045260246000fd5b602002602001018190525060405180604001604052807f1af7b55ef318269e6e033ca27bf094430483815e6c4faea0f0f6c45bcd36ea3381526020017f0e07ed61782e273ae2340c9e425d03c246a51ce7cbd69132d2b6f5f7e00698028152508160800151603081518110612906577f4e487b7100000000000000000000000000000000000000000000000000000000600052603260045260246000fd5b602002602001018190525060405180604001604052807f121f4b0ff08860efd3cb7e806ff741943996201dbf9c1c0115d9ed03c61d7f0181526020017f243cffc37629a707cba5e3e974aa4b0bc327da2626f7ffb4ef7e75a241986b8b81525081608001516031815181106129a4577f4e487b7100000000000000000000000000000000000000000000000000000000600052603260045260246000fd5b602002602001018190525060405180604001604052807f0dc473d210017969dd36041a93714511d79d6aa9c859faa781bc73e2bc53b3f481526020017f1d97faed03ad2761859a35e8472e0adcc0885d230efb106b42bc0f15d68bf2658152508160800151603281518110612a42577f4e487b7100000000000000000000000000000000000000000000000000000000600052603260045260246000fd5b602002602001018190525060405180604001604052807f16af27663f0aa9afab95be3684e44a4bee3bd4cc9dac9efe54b4c394b66d254781526020017f0aada0f268b9c2aed0e465e766115729f31d2d8eb9a15d4599afc6b7ef7f4b948152508160800151603381518110612ae0577f4e487b7100000000000000000000000000000000000000000000000000000000600052603260045260246000fd5b602002602001018190525060405180604001604052807f247f9440c1fa46c48036e8ff563b0844ab0c3fadce9f391180ee7ee7191ae1e181526020017f0d4d8a6a6392fa0ede88f2fcb34f1ef43ee8456e10339816afc4562e700370438152508160800151603481518110612b7e577f4e487b7100000000000000000000000000000000000000000000000000000000600052603260045260246000fd5b602002602001018190525060405180604001604052807f06f4a16ebb0f6be748ea59b75575c9ac03022b2442e363d874c999519f2d790381526020017f21932f7fe955620eb586704fef2cdc2d049aa3053f81c69e7f2ba990bbfd50ed8152508160800151603581518110612c1c577f4e487b7100000000000000000000000000000000000000000000000000000000600052603260045260246000fd5b602002602001018190525060405180604001604052807f0ed058684aac9f9a70df231e2893a3d7cc997ebf3349dae2813b193f1b8d730881526020017f04cec95e3bf5e05b15d148eb72e0d549414f80a052d370a820ebe83cba6bad058152508160800151603681518110612cba577f4e487b7100000000000000000000000000000000000000000000000000000000600052603260045260246000fd5b602002602001018190525060405180604001604052807f2dc75ef8faf2c17a644e0f5b71b0597aa938fba61c9aabb5d1a290c87ecb654d81526020017f063c3ab34523ff6dd893510766294636bd824665609c1a9c22ade159797235a48152508160800151603781518110612d58577f4e487b7100000000000000000000000000000000000000000000000000000000600052603260045260246000fd5b602002602001018190525060405180604001604052807f223222f67d5daba1c0b0fe7bfef152a363dbf8f333a9b18470e835c1dce80a2d81526020017f2099278eae6975963071565a52411391e9602ab55d8aa4dfeb673b2bae5220b98152508160800151603881518110612df6577f4e487b7100000000000000000000000000000000000000000000000000000000600052603260045260246000fd5b602002602001018190525060405180604001604052807f23b7b5cf94e728f95593e9f8a5ee8abf9238d436485ebaa90434809f1f19a7dc81526020017f0cbb890d273114b8a021840c748a01be15a0ffc9a54b3df7b64c3a0b27d495b88152508160800151603981518110612e94577f4e487b7100000000000000000000000000000000000000000000000000000000600052603260045260246000fd5b602002602001018190525060405180604001604052807f26e7b78bc57cd44680953ee7273998bd638296d0e2f2a21411d5d10224f7479781526020017f10949e515c93c78907627b21b1bf04ec5bd789ba9417d0ccb95d5691b9b7a1598152508160800151603a81518110612f32577f4e487b7100000000000000000000000000000000000000000000000000000000600052603260045260246000fd5b602002602001018190525060405180604001604052807f069639f2790cb1a60414a77dcc9f0b0185c5c0d67209a43b0dcf46cf0a35ee8881526020017f1a79a3c8bad78d32a0d03949b336e78e4478e77e8f1f5620616e3715dd3180e58152508160800151603b81518110612fd0577f4e487b7100000000000000000000000000000000000000000000000000000000600052603260045260246000fd5b602002602001018190525060405180604001604052807e2bd536e27e01a3932ec6977a8013716b59833dc70bbf14399705c29bccdb3181526020017f07c67a3c911287e1cf9fae37dc0c7a8c478752831ba443a22c417e1b155bf47b8152508160800151603c8151811061306d577f4e487b7100000000000000000000000000000000000000000000000000000000600052603260045260246000fd5b602002602001018190525060405180604001604052807f15bce91876e084b7b7caebe7bf693b7e9a946618d9b866c6505f73bf58151c2381526020017e47cd99eaaa2d3631c8c9bb1d63ad43cd7b49ee94cdee1baef7430c7fb5d4108152508160800151603d8151811061310a577f4e487b7100000000000000000000000000000000000000000000000000000000600052603260045260246000fd5b602002602001018190525060405180604001604052807f040ddb3df5910022a16364c84384e82fb98e1e2a2282d72dd86664443a7010cd81526020017f2820b4d70eca76ba495e8b2f69fd76493580e416b43f90a1f749d69e7d9c5fe18152508160800151603e815181106131a8577f4e487b7100000000000000000000000000000000000000000000000000000000600052603260045260246000fd5b602002602001018190525060405180604001604052807f09c73c58759242a4d3085e67a511668aabbcd8dd26fbffc1d803c85f62281f3d81526020017f15ef1bb2240b5f18db328ece663c79a538afcb0a638f5b2f7610ab204244b08d8152508160800151603f81518110613246577f4e487b7100000000000000000000000000000000000000000000000000000000600052603260045260246000fd5b602002602001018190525060405180604001604052807f2c3300a3886082bcd041b69440e180fba7a42d2412b5b89b7347d45b8070f99681526020017f1553dab416aa9f6fe8657827fa36815cab903e8f764114f8010182dc3c0b937781525081608001516040815181106132e4577f4e487b7100000000000000000000000000000000000000000000000000000000600052603260045260246000fd5b602002602001018190525060405180604001604052807f187c781965625db146ec711005a6de6778994500ef8efbe7d404f1bc75efad7c81526020017f1a776d81dc6f42c6114f30b1cd6559fb0a0d1c3bf4eebe3b5b7c4d28ddb4207f8152508160800151604181518110613382577f4e487b7100000000000000000000000000000000000000000000000000000000600052603260045260246000fd5b602002602001018190525060405180604001604052807f0489ba41ec520839edc23552ea9dbdc6be3864372e7488326f60e6485bc7687981526020017f0591da56a3519ff55d62f4fb551a279019d111d2ade4c80b756386d68999ba728152508160800151604281518110613420577f4e487b7100000000000000000000000000000000000000000000000000000000600052603260045260246000fd5b602002602001018190525060405180604001604052807f24088fcf746c539959172193bb01beaf4c13e80d60db77ffbbd61c1b00472b4081526020017f1d9438a0c5d720b03332db3c8198339dc1db2bde8dae960f9df9cc4069933e1981525081608001516043815181106134be577f4e487b7100000000000000000000000000000000000000000000000000000000600052603260045260246000fd5b602002602001018190525060405180604001604052807f127996a3624d2efa14eb6f703d2a11a7c522a603febf7152501db7c0db5433f281526020017f28adc192050167b41c25b0cae78ab5a58d33bd1239121dacd71ec36044be194b815250816080015160448151811061355c577f4e487b7100000000000000000000000000000000000000000000000000000000600052603260045260246000fd5b602002602001018190525060405180604001604052807f2470a23d93b2a158b748126afeb375292b474a22a2024a3375ac5b128aeda02d81526020017f011bfdec20adcd783e5d230d40e113ae4c59af1f9a7b9bc4deffdc68d0a0f2d281525081608001516045815181106135fa577f4e487b7100000000000000000000000000000000000000000000000000000000600052603260045260246000fd5b602002602001018190525060405180604001604052807e09ef3d1faf282551110240912cff2703462bb46cf40f1595b35a46806f85bf81526020017f1244c9f2166115e043a05aa949cba6e8ebc7b4a472e6e7bd00a6a55c2c178a9a8152508160800151604681518110613697577f4e487b7100000000000000000000000000000000000000000000000000000000600052603260045260246000fd5b602002602001018190525060405180604001604052807f26da40314fa9416fa8bbbf54a3d749976016a80976eadda5820908a31af8bfd381526020017f13745821fff94a2de1ccfb2f91c6838a3a3c8dc8a9d2da0b082f421eb10c6c618152508160800151604781518110613735577f4e487b7100000000000000000000000000000000000000000000000000000000600052603260045260246000fd5b602002602001018190525060405180604001604052807f0c26a9843784db3cd32df510cc391ac514f98f2e3e3fbee0ff9be559716bea3e81526020017f0a1c8e390af14c2b167e8b0798959ce6da6225898eff96c2352c3363af3ec00d81525081608001516048815181106137d3577f4e487b7100000000000000000000000000000000000000000000000000000000600052603260045260246000fd5b602002602001018190525060405180604001604052807f02c07f3aeed5a8f8cf8362aef2054e1844144e29f7bcca01e5dfad2e5c257e1d81526020017f2b68ef7e57e439ad75f6b833aedcab13fb1e48d73188d7c1fd6f9b77f9c3e54e8152508160800151604981518110613871577f4e487b7100000000000000000000000000000000000000000000000000000000600052603260045260246000fd5b602002602001018190525060405180604001604052807f02dcadb4bb622e50e4393c061d7a2850ae4f44c1a5f7a17931c8c5b5c6a1a7e981526020017f0a30dfa77b696cecbe721a3782014c1715f044fd6f3bfa2ea0e921f06a376b528152508160800151604a8151811061390f577f4e487b7100000000000000000000000000000000000000000000000000000000600052603260045260246000fd5b602002602001018190525060405180604001604052807f0b77f8b75e6eaeb034399bdfeab371d485b5329e29f3ec76ad61682cc7abbf0081526020017f0f766e782885c7b5220e4b8948a1ea2bc92afaa70a2e9176daa4069cc01889d48152508160800151604b815181106139ad577f4e487b7100000000000000000000000000000000000000000000000000000000600052603260045260246000fd5b602002602001018190525060405180604001604052807f0eaa204f4ba399c376e4240e0678e4db711852a5d17cd5bf8aee146f57c9970081526020017f1eec87e4745d1987333e8a1e70bd298f539dea4771aebeca62b10a46fb7cd2c38152508160800151604c81518110613a4b577f4e487b7100000000000000000000000000000000000000000000000000000000600052603260045260246000fd5b602002602001018190525060405180604001604052807f218e6743379cc2cadfaff41eb1b07d7e9f7761a7e6a767662a278fc3ca8a911881526020017f2a2831d75076a5eafcfda9bbaa5b408e8f3e59982b000a47d238377a5bb087808152508160800151604d81518110613ae9577f4e487b7100000000000000000000000000000000000000000000000000000000600052603260045260246000fd5b602002602001018190525060405180604001604052807f2f2c3c65a16a803dd89f5f60eb054a88e37e3bbd23e0907f5515b21659e7d10681526020017f234c9c0c85cd498f1b134db0b6be7547c12257ca31e49b1272f58ed65e21a27b8152508160800151604e81518110613b87577f4e487b7100000000000000000000000000000000000000000000000000000000600052603260045260246000fd5b602002602001018190525060405180604001604052807f0d199cbcfc83e387552b3ab38a0612f063faca1202d1820a102bed7c0b8f2bb681526020017f2972f94a703014772f4af61e16d2f17a80613c92f07fab9af0c6f617e0cdcb3e8152508160800151604f81518110613c25577f4e487b7100000000000000000000000000000000000000000000000000000000600052603260045260246000fd5b602002602001018190525060405180604001604052807f1802526c1957dda5bf447f49792d0352dc75c61b3937d6a7b2a42c3654a82d7281526020017f26ff4939a128afec5720fa12c0453671802b3f2e1dbee8e0663bbd16ae7255618152508160800151605081518110613cc3577f4e487b7100000000000000000000000000000000000000000000000000000000600052603260045260246000fd5b602002602001018190525090565b613cd9614a96565b613ce1614ab0565b836000015181600060038110613d20577f4e487b7100000000000000000000000000000000000000000000000000000000600052603260045260246000fd5b602002018181525050836020015181600160038110613d68577f4e487b7100000000000000000000000000000000000000000000000000000000600052603260045260246000fd5b6020020181815250508281600260038110613dac577f4e487b7100000000000000000000000000000000000000000000000000000000600052603260045260246000fd5b602002018181525050600060608360808460076107d05a03fa90508060008114613dd557613dd7565bfe5b5080613e18576040517f08c379a0000000000000000000000000000000000000000000000000000000008152600401613e0f90614e92565b60405180910390fd5b505092915050565b613e28614a96565b613e30614ad2565b836000015181600060048110613e6f577f4e487b7100000000000000000000000000000000000000000000000000000000600052603260045260246000fd5b602002018181525050836020015181600160048110613eb7577f4e487b7100000000000000000000000000000000000000000000000000000000600052603260045260246000fd5b602002018181525050826000015181600260048110613eff577f4e487b7100000000000000000000000000000000000000000000000000000000600052603260045260246000fd5b602002018181525050826020015181600360048110613f47577f4e487b7100000000000000000000000000000000000000000000000000000000600052603260045260246000fd5b602002018181525050600060608360c08460066107d05a03fa90508060008114613f7057613f72565bfe5b5080613fb3576040517f08c379a0000000000000000000000000000000000000000000000000000000008152600401613faa90614ef2565b60405180910390fd5b505092915050565b613fc3614a96565b60007f30644e72e131a029b85045b68181585d97816a916871ca8d3c208c16d87cfd47905060008360000151148015614000575060008360200151145b1561402457604051806040016040528060008152602001600081525091505061405b565b604051806040016040528084600001518152602001828560200151614049919061514e565b83614054919061508a565b8152509150505b919050565b600080600467ffffffffffffffff8111156140a4577f4e487b7100000000000000000000000000000000000000000000000000000000600052604160045260246000fd5b6040519080825280602002602001820160405280156140dd57816020015b6140ca614a96565b8152602001906001900390816140c25790505b5090506000600467ffffffffffffffff811115614123577f4e487b7100000000000000000000000000000000000000000000000000000000600052604160045260246000fd5b60405190808252806020026020018201604052801561415c57816020015b614149614af4565b8152602001906001900390816141415790505b5090508a8260008151811061419a577f4e487b7100000000000000000000000000000000000000000000000000000000600052603260045260246000fd5b602002602001018190525088826001815181106141e0577f4e487b7100000000000000000000000000000000000000000000000000000000600052603260045260246000fd5b60200260200101819052508682600281518110614226577f4e487b7100000000000000000000000000000000000000000000000000000000600052603260045260246000fd5b6020026020010181905250848260038151811061426c577f4e487b7100000000000000000000000000000000000000000000000000000000600052603260045260246000fd5b602002602001018190525089816000815181106142b2577f4e487b7100000000000000000000000000000000000000000000000000000000600052603260045260246000fd5b602002602001018190525087816001815181106142f8577f4e487b7100000000000000000000000000000000000000000000000000000000600052603260045260246000fd5b6020026020010181905250858160028151811061433e577f4e487b7100000000000000000000000000000000000000000000000000000000600052603260045260246000fd5b60200260200101819052508381600381518110614384577f4e487b7100000000000000000000000000000000000000000000000000000000600052603260045260246000fd5b602002602001018190525061439982826143a9565b9250505098975050505050505050565b600081518351146143ef576040517f08c379a00000000000000000000000000000000000000000000000000000000081526004016143e690614ed2565b60405180910390fd5b60008351905060006006826144049190615030565b905060008167ffffffffffffffff811115614448577f4e487b7100000000000000000000000000000000000000000000000000000000600052604160045260246000fd5b6040519080825280602002602001820160405280156144765781602001602082028036833780820191505090505b50905060005b8381101561495b578681815181106144bd577f4e487b7100000000000000000000000000000000000000000000000000000000600052603260045260246000fd5b6020026020010151600001518260006006846144d99190615030565b6144e39190614fda565b8151811061451a577f4e487b7100000000000000000000000000000000000000000000000000000000600052603260045260246000fd5b60200260200101818152505086818151811061455f577f4e487b7100000000000000000000000000000000000000000000000000000000600052603260045260246000fd5b60200260200101516020015182600160068461457b9190615030565b6145859190614fda565b815181106145bc577f4e487b7100000000000000000000000000000000000000000000000000000000600052603260045260246000fd5b602002602001018181525050858181518110614601577f4e487b7100000000000000000000000000000000000000000000000000000000600052603260045260246000fd5b602002602001015160000151600060028110614646577f4e487b7100000000000000000000000000000000000000000000000000000000600052603260045260246000fd5b602002015182600260068461465b9190615030565b6146659190614fda565b8151811061469c577f4e487b7100000000000000000000000000000000000000000000000000000000600052603260045260246000fd5b6020026020010181815250508581815181106146e1577f4e487b7100000000000000000000000000000000000000000000000000000000600052603260045260246000fd5b602002602001015160000151600160028110614726577f4e487b7100000000000000000000000000000000000000000000000000000000600052603260045260246000fd5b602002015182600360068461473b9190615030565b6147459190614fda565b8151811061477c577f4e487b7100000000000000000000000000000000000000000000000000000000600052603260045260246000fd5b6020026020010181815250508581815181106147c1577f4e487b7100000000000000000000000000000000000000000000000000000000600052603260045260246000fd5b602002602001015160200151600060028110614806577f4e487b7100000000000000000000000000000000000000000000000000000000600052603260045260246000fd5b602002015182600460068461481b9190615030565b6148259190614fda565b8151811061485c577f4e487b7100000000000000000000000000000000000000000000000000000000600052603260045260246000fd5b6020026020010181815250508581815181106148a1577f4e487b7100000000000000000000000000000000000000000000000000000000600052603260045260246000fd5b6020026020010151602001516001600281106148e6577f4e487b7100000000000000000000000000000000000000000000000000000000600052603260045260246000fd5b60200201518260056006846148fb9190615030565b6149059190614fda565b8151811061493c577f4e487b7100000000000000000000000000000000000000000000000000000000600052603260045260246000fd5b602002602001018181525050808061495390615105565b91505061447c565b50614964614b1a565b6000602082602086026020860160086107d05a03fa905080600081146149895761498b565bfe5b50806149cc576040517f08c379a00000000000000000000000000000000000000000000000000000000081526004016149c390614f12565b60405180910390fd5b600082600060018110614a08577f4e487b7100000000000000000000000000000000000000000000000000000000600052603260045260246000fd5b602002015114159550505050505092915050565b6040518060600160405280614a2f614a96565b8152602001614a3c614af4565b8152602001614a49614a96565b81525090565b6040518060a00160405280614a62614a96565b8152602001614a6f614af4565b8152602001614a7c614af4565b8152602001614a89614af4565b8152602001606081525090565b604051806040016040528060008152602001600081525090565b6040518060600160405280600390602082028036833780820191505090505090565b6040518060800160405280600490602082028036833780820191505090505090565b6040518060400160405280614b07614b3c565b8152602001614b14614b3c565b81525090565b6040518060200160405280600190602082028036833780820191505090505090565b6040518060400160405280600290602082028036833780820191505090505090565b6000614b71614b6c84614f57565b614f32565b90508082856040860282011115614b8757600080fd5b60005b85811015614bb75781614b9d8882614cae565b845260208401935060408301925050600181019050614b8a565b5050509392505050565b6000614bd4614bcf84614f7d565b614f32565b90508082856020860282011115614bea57600080fd5b60005b85811015614c1a5781614c008882614cfc565b845260208401935060208301925050600181019050614bed565b5050509392505050565b6000614c37614c3284614fa3565b614f32565b90508082856020860282011115614c4d57600080fd5b60005b85811015614c7d5781614c638882614cfc565b845260208401935060208301925050600181019050614c50565b5050509392505050565b600082601f830112614c9857600080fd5b6002614ca5848285614b5e565b91505092915050565b600082601f830112614cbf57600080fd5b6002614ccc848285614bc1565b91505092915050565b600082601f830112614ce657600080fd5b6050614cf3848285614c24565b91505092915050565b600081359050614d0b81615313565b92915050565b600080600080610b008587031215614d2857600080fd5b6000614d3687828801614cae565b9450506040614d4787828801614c87565b93505060c0614d5887828801614cae565b925050610100614d6a87828801614cd5565b91505092959194509250565b614d7f816150be565b82525050565b6000614d92601283614fc9565b9150614d9d8261521d565b602082019050919050565b6000614db5601283614fc9565b9150614dc082615246565b602082019050919050565b6000614dd8601f83614fc9565b9150614de38261526f565b602082019050919050565b6000614dfb601683614fc9565b9150614e0682615298565b602082019050919050565b6000614e1e601283614fc9565b9150614e29826152c1565b602082019050919050565b6000614e41601583614fc9565b9150614e4c826152ea565b602082019050919050565b6000602082019050614e6c6000830184614d76565b92915050565b60006020820190508181036000830152614e8b81614d85565b9050919050565b60006020820190508181036000830152614eab81614da8565b9050919050565b60006020820190508181036000830152614ecb81614dcb565b9050919050565b60006020820190508181036000830152614eeb81614dee565b9050919050565b60006020820190508181036000830152614f0b81614e11565b9050919050565b60006020820190508181036000830152614f2b81614e34565b9050919050565b6000614f3c614f4d565b9050614f4882826150d4565b919050565b6000604051905090565b600067ffffffffffffffff821115614f7257614f716151dd565b5b602082029050919050565b600067ffffffffffffffff821115614f9857614f976151dd565b5b602082029050919050565b600067ffffffffffffffff821115614fbe57614fbd6151dd565b5b602082029050919050565b600082825260208201905092915050565b6000614fe5826150ca565b9150614ff0836150ca565b9250827fffffffffffffffffffffffffffffffffffffffffffffffffffffffffffffffff038211156150255761502461517f565b5b828201905092915050565b600061503b826150ca565b9150615046836150ca565b9250817fffffffffffffffffffffffffffffffffffffffffffffffffffffffffffffffff048311821515161561507f5761507e61517f565b5b828202905092915050565b6000615095826150ca565b91506150a0836150ca565b9250828210156150b3576150b261517f565b5b828203905092915050565b60008115159050919050565b6000819050919050565b6150dd8261520c565b810181811067ffffffffffffffff821117156150fc576150fb6151dd565b5b80604052505050565b6000615110826150ca565b91507fffffffffffffffffffffffffffffffffffffffffffffffffffffffffffffffff8214156151435761514261517f565b5b600182019050919050565b6000615159826150ca565b9150615164836150ca565b925082615174576151736151ae565b5b828206905092915050565b7f4e487b7100000000000000000000000000000000000000000000000000000000600052601160045260246000fd5b7f4e487b7100000000000000000000000000000000000000000000000000000000600052601260045260246000fd5b7f4e487b7100000000000000000000000000000000000000000000000000000000600052604160045260246000fd5b6000601f19601f8301169050919050565b7f76657269666965722d6261642d696e7075740000000000000000000000000000600082015250565b7f70616972696e672d6d756c2d6661696c65640000000000000000000000000000600082015250565b7f76657269666965722d6774652d736e61726b2d7363616c61722d6669656c6400600082015250565b7f70616972696e672d6c656e677468732d6661696c656400000000000000000000600082015250565b7f70616972696e672d6164642d6661696c65640000000000000000000000000000600082015250565b7f70616972696e672d6f70636f64652d6661696c65640000000000000000000000600082015250565b61531c816150ca565b811461532757600080fd5b5056fea264697066735822122074db07baac3d348a70d52578ee8db2d9e735b63fa2383fb7110560b6a1672ab264736f6c63430008040033",
  "linkReferences": {},
  "deployedLinkReferences": {}
}