{
  "_format": "hh-sol-artifact-1",
  "contractName": "zk15",
  "sourceName": "contracts/zk15.sol",
  "abi": [
    {
      "inputs": [
        {
          "internalType": "address",
          "name": "_verifier",
          "type": "address"
        }
      ],
      "stateMutability": "nonpayable",
      "type": "constructor"
    },
    {
      "anonymous": false,
      "inputs": [
        {
          "indexed": true,
          "internalType": "address",
          "name": "owner",
          "type": "address"
        },
        {
          "indexed": true,
          "internalType": "address",
          "name": "approved",
          "type": "address"
        },
        {
          "indexed": true,
          "internalType": "uint256",
          "name": "tokenId",
          "type": "uint256"
        }
      ],
      "name": "Approval",
      "type": "event"
    },
    {
      "anonymous": false,
      "inputs": [
        {
          "indexed": true,
          "internalType": "address",
          "name": "owner",
          "type": "address"
        },
        {
          "indexed": true,
          "internalType": "address",
          "name": "operator",
          "type": "address"
        },
        {
          "indexed": false,
          "internalType": "bool",
          "name": "approved",
          "type": "bool"
        }
      ],
      "name": "ApprovalForAll",
      "type": "event"
    },
    {
      "anonymous": false,
      "inputs": [
        {
          "indexed": true,
          "internalType": "address",
          "name": "from",
          "type": "address"
        },
        {
          "indexed": true,
          "internalType": "address",
          "name": "to",
          "type": "address"
        },
        {
          "indexed": true,
          "internalType": "uint256",
          "name": "tokenId",
          "type": "uint256"
        }
      ],
      "name": "Transfer",
      "type": "event"
    },
    {
      "inputs": [],
      "name": "NFTsMinted",
      "outputs": [
        {
          "components": [
            {
              "internalType": "uint256",
              "name": "_value",
              "type": "uint256"
            }
          ],
          "internalType": "struct Counters.Counter",
          "name": "",
          "type": "tuple"
        }
      ],
      "stateMutability": "view",
      "type": "function"
    },
    {
      "inputs": [
        {
          "internalType": "address",
          "name": "to",
          "type": "address"
        },
        {
          "internalType": "uint256",
          "name": "tokenId",
          "type": "uint256"
        }
      ],
      "name": "approve",
      "outputs": [],
      "stateMutability": "nonpayable",
      "type": "function"
    },
    {
      "inputs": [
        {
          "internalType": "address",
          "name": "owner",
          "type": "address"
        }
      ],
      "name": "balanceOf",
      "outputs": [
        {
          "internalType": "uint256",
          "name": "",
          "type": "uint256"
        }
      ],
      "stateMutability": "view",
      "type": "function"
    },
    {
      "inputs": [
        {
          "components": [
            {
              "internalType": "uint256",
              "name": "index",
              "type": "uint256"
            },
            {
              "internalType": "uint256",
              "name": "x",
              "type": "uint256"
            },
            {
              "internalType": "uint256",
              "name": "y",
              "type": "uint256"
            }
          ],
          "internalType": "struct zk15.Tile[16]",
          "name": "_tiles",
          "type": "tuple[16]"
        },
        {
          "internalType": "uint256",
          "name": "x",
          "type": "uint256"
        },
        {
          "internalType": "uint256",
          "name": "y",
          "type": "uint256"
        }
      ],
      "name": "findTile",
      "outputs": [
        {
          "internalType": "uint256",
          "name": "",
          "type": "uint256"
        }
      ],
      "stateMutability": "view",
      "type": "function"
    },
    {
      "inputs": [],
      "name": "gameCount",
      "outputs": [
        {
          "internalType": "uint256",
          "name": "",
          "type": "uint256"
        }
      ],
      "stateMutability": "view",
      "type": "function"
    },
    {
      "inputs": [
        {
          "internalType": "uint256",
          "name": "tokenId",
          "type": "uint256"
        }
      ],
      "name": "getApproved",
      "outputs": [
        {
          "internalType": "address",
          "name": "",
          "type": "address"
        }
      ],
      "stateMutability": "view",
      "type": "function"
    },
    {
      "inputs": [],
      "name": "getBoard",
      "outputs": [
        {
          "internalType": "uint8[5][16]",
          "name": "",
          "type": "uint8[5][16]"
        }
      ],
      "stateMutability": "view",
      "type": "function"
    },
    {
      "inputs": [],
      "name": "getScores",
      "outputs": [
        {
          "internalType": "uint256[]",
          "name": "",
          "type": "uint256[]"
        }
      ],
      "stateMutability": "view",
      "type": "function"
    },
    {
      "inputs": [
        {
          "internalType": "address",
          "name": "owner",
          "type": "address"
        },
        {
          "internalType": "address",
          "name": "operator",
          "type": "address"
        }
      ],
      "name": "isApprovedForAll",
      "outputs": [
        {
          "internalType": "bool",
          "name": "",
          "type": "bool"
        }
      ],
      "stateMutability": "view",
      "type": "function"
    },
    {
      "inputs": [],
      "name": "move",
      "outputs": [
        {
          "components": [
            {
              "internalType": "uint256",
              "name": "index",
              "type": "uint256"
            },
            {
              "internalType": "uint256",
              "name": "x",
              "type": "uint256"
            },
            {
              "internalType": "uint256",
              "name": "y",
              "type": "uint256"
            }
          ],
          "internalType": "struct zk15.Tile[16]",
          "name": "",
          "type": "tuple[16]"
        }
      ],
      "stateMutability": "nonpayable",
      "type": "function"
    },
    {
      "inputs": [
        {
          "internalType": "uint256",
          "name": "x",
          "type": "uint256"
        },
        {
          "internalType": "uint256",
          "name": "y",
          "type": "uint256"
        },
        {
          "internalType": "uint256",
          "name": "blankX",
          "type": "uint256"
        },
        {
          "internalType": "uint256",
          "name": "blankY",
          "type": "uint256"
        }
      ],
      "name": "moveIsValid",
      "outputs": [
        {
          "internalType": "bool",
          "name": "",
          "type": "bool"
        }
      ],
      "stateMutability": "view",
      "type": "function"
    },
    {
      "inputs": [],
      "name": "name",
      "outputs": [
        {
          "internalType": "string",
          "name": "",
          "type": "string"
        }
      ],
      "stateMutability": "view",
      "type": "function"
    },
    {
      "inputs": [
        {
          "internalType": "uint256",
          "name": "tokenId",
          "type": "uint256"
        }
      ],
      "name": "ownerOf",
      "outputs": [
        {
          "internalType": "address",
          "name": "",
          "type": "address"
        }
      ],
      "stateMutability": "view",
      "type": "function"
    },
    {
      "inputs": [],
      "name": "randomSteps",
      "outputs": [
        {
          "internalType": "uint256",
          "name": "",
          "type": "uint256"
        }
      ],
      "stateMutability": "view",
      "type": "function"
    },
    {
      "inputs": [
        {
          "internalType": "address",
          "name": "from",
          "type": "address"
        },
        {
          "internalType": "address",
          "name": "to",
          "type": "address"
        },
        {
          "internalType": "uint256",
          "name": "tokenId",
          "type": "uint256"
        }
      ],
      "name": "safeTransferFrom",
      "outputs": [],
      "stateMutability": "nonpayable",
      "type": "function"
    },
    {
      "inputs": [
        {
          "internalType": "address",
          "name": "from",
          "type": "address"
        },
        {
          "internalType": "address",
          "name": "to",
          "type": "address"
        },
        {
          "internalType": "uint256",
          "name": "tokenId",
          "type": "uint256"
        },
        {
          "internalType": "bytes",
          "name": "_data",
          "type": "bytes"
        }
      ],
      "name": "safeTransferFrom",
      "outputs": [],
      "stateMutability": "nonpayable",
      "type": "function"
    },
    {
      "inputs": [
        {
          "internalType": "uint256",
          "name": "",
          "type": "uint256"
        }
      ],
      "name": "scores",
      "outputs": [
        {
          "internalType": "uint256",
          "name": "",
          "type": "uint256"
        }
      ],
      "stateMutability": "view",
      "type": "function"
    },
    {
      "inputs": [
        {
          "internalType": "address",
          "name": "operator",
          "type": "address"
        },
        {
          "internalType": "bool",
          "name": "approved",
          "type": "bool"
        }
      ],
      "name": "setApprovalForAll",
      "outputs": [],
      "stateMutability": "nonpayable",
      "type": "function"
    },
    {
      "inputs": [
        {
          "internalType": "bytes4",
          "name": "interfaceId",
          "type": "bytes4"
        }
      ],
      "name": "supportsInterface",
      "outputs": [
        {
          "internalType": "bool",
          "name": "",
          "type": "bool"
        }
      ],
      "stateMutability": "view",
      "type": "function"
    },
    {
      "inputs": [],
      "name": "symbol",
      "outputs": [
        {
          "internalType": "string",
          "name": "",
          "type": "string"
        }
      ],
      "stateMutability": "view",
      "type": "function"
    },
    {
      "inputs": [
        {
          "internalType": "uint256",
          "name": "tokenId",
          "type": "uint256"
        }
      ],
      "name": "tokenURI",
      "outputs": [
        {
          "internalType": "string",
          "name": "",
          "type": "string"
        }
      ],
      "stateMutability": "view",
      "type": "function"
    },
    {
      "inputs": [
        {
          "internalType": "address",
          "name": "from",
          "type": "address"
        },
        {
          "internalType": "address",
          "name": "to",
          "type": "address"
        },
        {
          "internalType": "uint256",
          "name": "tokenId",
          "type": "uint256"
        }
      ],
      "name": "transferFrom",
      "outputs": [],
      "stateMutability": "nonpayable",
      "type": "function"
    },
    {
      "inputs": [],
      "name": "verifier",
      "outputs": [
        {
          "internalType": "contract IVerifier",
          "name": "",
          "type": "address"
        }
      ],
      "stateMutability": "view",
      "type": "function"
    },
    {
      "inputs": [
        {
          "internalType": "uint256[2]",
          "name": "a",
          "type": "uint256[2]"
        },
        {
          "internalType": "uint256[2][2]",
          "name": "b",
          "type": "uint256[2][2]"
        },
        {
          "internalType": "uint256[2]",
          "name": "c",
          "type": "uint256[2]"
        },
        {
          "internalType": "uint256[80]",
          "name": "input",
          "type": "uint256[80]"
        },
        {
          "internalType": "uint256",
          "name": "_steps",
          "type": "uint256"
        }
      ],
      "name": "verifyProof",
      "outputs": [
        {
          "internalType": "bool",
          "name": "",
          "type": "bool"
        }
      ],
      "stateMutability": "nonpayable",
      "type": "function"
    }
  ],
  "bytecode": "0x60806040526040518061020001604052806040518060a00160405280600160ff168152602001600260ff168152602001600160ff168152602001600260ff168152602001600160ff1681525081526020016040518060a00160405280600260ff168152602001600260ff168152602001600260ff168152602001600260ff168152602001600260ff1681525081526020016040518060a00160405280600360ff168152602001600360ff168152602001600060ff168152602001600360ff168152602001600060ff1681525081526020016040518060a00160405280600460ff168152602001600160ff168152602001600060ff168152602001600160ff168152602001600060ff1681525081526020016040518060a00160405280600560ff168152602001600060ff168152602001600260ff168152602001600060ff168152602001600260ff1681525081526020016040518060a00160405280600660ff168152602001600060ff168152602001600060ff168152602001600060ff168152602001600060ff1681525081526020016040518060a00160405280600760ff168152602001600160ff168152602001600260ff168152602001600160ff168152602001600260ff1681525081526020016040518060a00160405280600860ff168152602001600360ff168152602001600160ff168152602001600360ff168152602001600160ff1681525081526020016040518060a00160405280600960ff168152602001600260ff168152602001600060ff168152602001600260ff168152602001600060ff1681525081526020016040518060a00160405280600a60ff168152602001600060ff168152602001600160ff168152602001600060ff168152602001600160ff1681525081526020016040518060a00160405280600b60ff168152602001600360ff168152602001600260ff168152602001600360ff168152602001600260ff1681525081526020016040518060a00160405280600c60ff168152602001600160ff168152602001600360ff168152602001600160ff168152602001600360ff1681525081526020016040518060a00160405280600d60ff168152602001600260ff168152602001600360ff168152602001600260ff168152602001600360ff1681525081526020016040518060a00160405280600e60ff168152602001600060ff168152602001600360ff168152602001600060ff168152602001600360ff1681525081526020016040518060a00160405280600f60ff168152602001600360ff168152602001600360ff168152602001600360ff168152602001600360ff1681525081526020016040518060a00160405280601060ff168152602001600160ff168152602001600160ff168152602001600160ff168152602001600160ff16815250815250600a90601062000420929190620005c2565b506000601b55604051806101400160405280600e60ff168152602001601560ff168152602001600660ff168152602001605d60ff168152602001603f60ff168152602001603060ff168152602001604a60ff168152602001601d60ff168152602001601660ff168152602001602560ff16815250602090600a620004a692919062000617565b50348015620004b457600080fd5b50604051620052a3380380620052a38339818101604052810190620004da9190620007f8565b6040518060400160405280600d81526020017f7a6b313550757a7a6c654e4654000000000000000000000000000000000000008152506040518060400160405280600481526020017f7a6b31350000000000000000000000000000000000000000000000000000000081525081600090805190602001906200055e92919062000661565b5080600190805190602001906200057792919062000661565b50505080600860006101000a81548173ffffffffffffffffffffffffffffffffffffffff021916908373ffffffffffffffffffffffffffffffffffffffff16021790555050620008d7565b826010810192821562000604579160200282015b828111156200060357825182906005620005f2929190620006f2565b5091602001919060010190620005d6565b5b50905062000613919062000793565b5090565b82600a81019282156200064e579160200282015b828111156200064d578251829060ff169055916020019190600101906200062b565b5b5090506200065d9190620007bb565b5090565b8280546200066f9062000858565b90600052602060002090601f016020900481019282620006935760008555620006df565b82601f10620006ae57805160ff1916838001178555620006df565b82800160010185558215620006df579182015b82811115620006de578251825591602001919060010190620006c1565b5b509050620006ee9190620007bb565b5090565b826005601f01602090048101928215620007805791602002820160005b838211156200074f57835183826101000a81548160ff021916908360ff16021790555092602001926001016020816000010492830192600103026200070f565b80156200077e5782816101000a81549060ff02191690556001016020816000010492830192600103026200074f565b505b5090506200078f9190620007bb565b5090565b5b80821115620007b75760008181620007ad9190620007da565b5060010162000794565b5090565b5b80821115620007d6576000816000905550600101620007bc565b5090565b5060009055565b600081519050620007f281620008bd565b92915050565b6000602082840312156200080b57600080fd5b60006200081b84828501620007e1565b91505092915050565b6000620008318262000838565b9050919050565b600073ffffffffffffffffffffffffffffffffffffffff82169050919050565b600060028204905060018216806200087157607f821691505b602082108114156200088857620008876200088e565b5b50919050565b7f4e487b7100000000000000000000000000000000000000000000000000000000600052602260045260246000fd5b620008c88162000824565b8114620008d457600080fd5b50565b6149bc80620008e76000396000f3fe608060405234801561001057600080fd5b50600436106101585760003560e01c80633ec48a2e116100c357806395d89b411161007c57806395d89b41146103f1578063a22cb4651461040f578063b88d4fde1461042b578063c87b56dd14610447578063daba324b14610477578063e985e9c5146104a757610158565b80633ec48a2e1461031b57806342842e0e14610339578063478bacf3146103555780634d1975b4146103735780636352211e1461039157806370a08231146103c157610158565b80632218817c116101155780632218817c1461024557806323b872dd146102755780632b7ac3f3146102915780632ee691a3146102af5780633264a34b146102df5780633d3066d7146102fd57610158565b806301ffc9a71461015d57806306fdde031461018d578063081812fc146101ab578063095ea7b3146101db5780631e8e3b88146101f75780631ea1380c14610227575b600080fd5b61017760048036038101906101729190612fb7565b6104d7565b6040516101849190613a18565b60405180910390f35b6101956105b9565b6040516101a29190613a4e565b60405180910390f35b6101c560048036038101906101c09190613009565b61064b565b6040516101d29190613910565b60405180910390f35b6101f560048036038101906101f09190612e86565b6106d0565b005b610211600480360381019061020c9190613032565b6107e8565b60405161021e9190613a18565b60405180910390f35b61022f610842565b60405161023c91906139f6565b60405180910390f35b61025f600480360381019061025a9190612ec2565b61089a565b60405161026c9190613c4b565b60405180910390f35b61028f600480360381019061028a9190612d80565b610965565b005b6102996109c5565b6040516102a69190613a33565b60405180910390f35b6102c960048036038101906102c49190613009565b6109eb565b6040516102d69190613c4b565b60405180910390f35b6102e7610a0f565b6040516102f49190613977565b60405180910390f35b610305610ab5565b6040516103129190613c30565b60405180910390f35b610323610ad9565b6040516103309190613993565b60405180910390f35b610353600480360381019061034e9190612d80565b611073565b005b61035d611093565b60405161036a9190613c4b565b60405180910390f35b61037b611099565b6040516103889190613c4b565b60405180910390f35b6103ab60048036038101906103a69190613009565b61109f565b6040516103b89190613910565b60405180910390f35b6103db60048036038101906103d69190612d1b565b611151565b6040516103e89190613c4b565b60405180910390f35b6103f9611209565b6040516104069190613a4e565b60405180910390f35b61042960048036038101906104249190612e4a565b61129b565b005b61044560048036038101906104409190612dcf565b6112b1565b005b610461600480360381019061045c9190613009565b611313565b60405161046e9190613a4e565b60405180910390f35b610491600480360381019061048c9190612f14565b611395565b60405161049e9190613a18565b60405180910390f35b6104c160048036038101906104bc9190612d44565b61149e565b6040516104ce9190613a18565b60405180910390f35b60007f80ac58cd000000000000000000000000000000000000000000000000000000007bffffffffffffffffffffffffffffffffffffffffffffffffffffffff1916827bffffffffffffffffffffffffffffffffffffffffffffffffffffffff191614806105a257507f5b5e139f000000000000000000000000000000000000000000000000000000007bffffffffffffffffffffffffffffffffffffffffffffffffffffffff1916827bffffffffffffffffffffffffffffffffffffffffffffffffffffffff1916145b806105b257506105b182611532565b5b9050919050565b6060600080546105c8906142af565b80601f01602080910402602001604051908101604052809291908181526020018280546105f4906142af565b80156106415780601f1061061657610100808354040283529160200191610641565b820191906000526020600020905b81548152906001019060200180831161062457829003601f168201915b5050505050905090565b60006106568261159c565b610695576040517f08c379a000000000000000000000000000000000000000000000000000000000815260040161068c90613bb0565b60405180910390fd5b6004600083815260200190815260200160002060009054906101000a900473ffffffffffffffffffffffffffffffffffffffff169050919050565b60006106db8261109f565b90508073ffffffffffffffffffffffffffffffffffffffff168373ffffffffffffffffffffffffffffffffffffffff16141561074c576040517f08c379a000000000000000000000000000000000000000000000000000000000815260040161074390613bf0565b60405180910390fd5b8073ffffffffffffffffffffffffffffffffffffffff1661076b611608565b73ffffffffffffffffffffffffffffffffffffffff16148061079a575061079981610794611608565b61149e565b5b6107d9576040517f08c379a00000000000000000000000000000000000000000000000000000000081526004016107d090613b30565b60405180910390fd5b6107e38383611610565b505050565b600082851480156107f857508184145b15610806576000905061083a565b600161081285846116c9565b61081c87866116c9565b6108269190613efe565b1415610835576001905061083a565b600090505b949350505050565b6060601c80548060200260200160405190810160405280929190818152602001828054801561089057602002820191906000526020600020905b81548152602001906001019080831161087c575b5050505050905090565b600080600090505b601081101561095c57838582601081106108e5577f4e487b7100000000000000000000000000000000000000000000000000000000600052603260045260246000fd5b60200201516020015114801561093b575082858260108110610930577f4e487b7100000000000000000000000000000000000000000000000000000000600052603260045260246000fd5b602002015160400151145b15610949578091505061095e565b808061095490614312565b9150506108a2565b505b9392505050565b610976610970611608565b8261173b565b6109b5576040517f08c379a00000000000000000000000000000000000000000000000000000000081526004016109ac90613c10565b60405180910390fd5b6109c0838383611819565b505050565b600860009054906101000a900473ffffffffffffffffffffffffffffffffffffffff1681565b601c81815481106109fb57600080fd5b906000526020600020016000915090505481565b610a17612807565b600a601080602002604051908101604052809291906000905b82821015610aac57838201600580602002604051908101604052809291908260058015610a98576020028201916000905b82829054906101000a900460ff1660ff1681526020019060010190602082600001049283019260010382029150808411610a615790505b505050505081526020019060010190610a30565b50505050905090565b610abd612835565b6007604051806020016040529081600082015481525050905090565b610ae1612848565b600060039050600060039050600080600080610afb611a80565b90506000610b07611b48565b905060005b6103e881101561106557610c1c82826103e88110610b53577f4e487b7100000000000000000000000000000000000000000000000000000000600052603260045260246000fd5b6020020151600060028110610b91577f4e487b7100000000000000000000000000000000000000000000000000000000600052603260045260246000fd5b602002015183836103e88110610bd0577f4e487b7100000000000000000000000000000000000000000000000000000000600052603260045260246000fd5b6020020151600160028110610c0e577f4e487b7100000000000000000000000000000000000000000000000000000000600052603260045260246000fd5b60200201518a8a8a8a611cfc565b15611052576000610d268484846103e88110610c61577f4e487b7100000000000000000000000000000000000000000000000000000000600052603260045260246000fd5b6020020151600060028110610c9f577f4e487b7100000000000000000000000000000000000000000000000000000000600052603260045260246000fd5b602002015185856103e88110610cde577f4e487b7100000000000000000000000000000000000000000000000000000000600052603260045260246000fd5b6020020151600160028110610d1c577f4e487b7100000000000000000000000000000000000000000000000000000000600052603260045260246000fd5b602002015161089a565b905088848260108110610d62577f4e487b7100000000000000000000000000000000000000000000000000000000600052603260045260246000fd5b6020020151602001818152505087848260108110610da9577f4e487b7100000000000000000000000000000000000000000000000000000000600052603260045260246000fd5b6020020151604001818152505088965087955082826103e88110610df6577f4e487b7100000000000000000000000000000000000000000000000000000000600052603260045260246000fd5b6020020151600060028110610e34577f4e487b7100000000000000000000000000000000000000000000000000000000600052603260045260246000fd5b602002015184600f60108110610e73577f4e487b7100000000000000000000000000000000000000000000000000000000600052603260045260246000fd5b6020020151602001818152505082826103e88110610eba577f4e487b7100000000000000000000000000000000000000000000000000000000600052603260045260246000fd5b6020020151600160028110610ef8577f4e487b7100000000000000000000000000000000000000000000000000000000600052603260045260246000fd5b602002015184600f60108110610f37577f4e487b7100000000000000000000000000000000000000000000000000000000600052603260045260246000fd5b6020020151604001818152505082826103e88110610f7e577f4e487b7100000000000000000000000000000000000000000000000000000000600052603260045260246000fd5b6020020151600060028110610fbc577f4e487b7100000000000000000000000000000000000000000000000000000000600052603260045260246000fd5b6020020151985082826103e88110610ffd577f4e487b7100000000000000000000000000000000000000000000000000000000600052603260045260246000fd5b602002015160016002811061103b577f4e487b7100000000000000000000000000000000000000000000000000000000600052603260045260246000fd5b60200201519750848061104d90614312565b955050505b808061105d90614312565b915050610b0c565b508197505050505050505090565b61108e838383604051806020016040528060008152506112b1565b505050565b601a5481565b601b5481565b6000806002600084815260200190815260200160002060009054906101000a900473ffffffffffffffffffffffffffffffffffffffff169050600073ffffffffffffffffffffffffffffffffffffffff168173ffffffffffffffffffffffffffffffffffffffff161415611148576040517f08c379a000000000000000000000000000000000000000000000000000000000815260040161113f90613b70565b60405180910390fd5b80915050919050565b60008073ffffffffffffffffffffffffffffffffffffffff168273ffffffffffffffffffffffffffffffffffffffff1614156111c2576040517f08c379a00000000000000000000000000000000000000000000000000000000081526004016111b990613b50565b60405180910390fd5b600360008373ffffffffffffffffffffffffffffffffffffffff1673ffffffffffffffffffffffffffffffffffffffff168152602001908152602001600020549050919050565b606060018054611218906142af565b80601f0160208091040260200160405190810160405280929190818152602001828054611244906142af565b80156112915780601f1061126657610100808354040283529160200191611291565b820191906000526020600020905b81548152906001019060200180831161127457829003601f168201915b5050505050905090565b6112ad6112a6611608565b8383611d70565b5050565b6112c26112bc611608565b8361173b565b611301576040517f08c379a00000000000000000000000000000000000000000000000000000000081526004016112f890613c10565b60405180910390fd5b61130d84848484611edd565b50505050565b6060600061136b6009600085815260200190815260200160002060000160096000868152602001908152602001600020600101604051602001611357929190613856565b604051602081830303815290604052611f39565b90508060405160200161137e91906138b1565b604051602081830303815290604052915050919050565b6000600860009054906101000a900473ffffffffffffffffffffffffffffffffffffffff1673ffffffffffffffffffffffffffffffffffffffff1663c3fa27f2878787876040518563ffffffff1660e01b81526004016113f894939291906139af565b60206040518083038186803b15801561141057600080fd5b505afa158015611424573d6000803e3d6000fd5b505050506040513d601f19601f820116820180604052508101906114489190612f8e565b611487576040517f08c379a000000000000000000000000000000000000000000000000000000000815260040161147e90613bd0565b60405180910390fd5b611490826120c3565b506001905095945050505050565b6000600560008473ffffffffffffffffffffffffffffffffffffffff1673ffffffffffffffffffffffffffffffffffffffff16815260200190815260200160002060008373ffffffffffffffffffffffffffffffffffffffff1673ffffffffffffffffffffffffffffffffffffffff16815260200190815260200160002060009054906101000a900460ff16905092915050565b60007f01ffc9a7000000000000000000000000000000000000000000000000000000007bffffffffffffffffffffffffffffffffffffffffffffffffffffffff1916827bffffffffffffffffffffffffffffffffffffffffffffffffffffffff1916149050919050565b60008073ffffffffffffffffffffffffffffffffffffffff166002600084815260200190815260200160002060009054906101000a900473ffffffffffffffffffffffffffffffffffffffff1673ffffffffffffffffffffffffffffffffffffffff1614159050919050565b600033905090565b816004600083815260200190815260200160002060006101000a81548173ffffffffffffffffffffffffffffffffffffffff021916908373ffffffffffffffffffffffffffffffffffffffff160217905550808273ffffffffffffffffffffffffffffffffffffffff166116838361109f565b73ffffffffffffffffffffffffffffffffffffffff167f8c5be1e5ebec7d5bd14f71427d1e84f3dd0314c0f7b2291e5b200ac8c7c3b92560405160405180910390a45050565b6000808390506000839050600081836116e291906140f6565b1215611724577fffffffffffffffffffffffffffffffffffffffffffffffffffffffffffffffff818361171591906140f6565b61171f9190613f85565b611731565b808261173091906140f6565b5b9250505092915050565b60006117468261159c565b611785576040517f08c379a000000000000000000000000000000000000000000000000000000000815260040161177c90613b10565b60405180910390fd5b60006117908361109f565b90508073ffffffffffffffffffffffffffffffffffffffff168473ffffffffffffffffffffffffffffffffffffffff1614806117d257506117d1818561149e565b5b8061181057508373ffffffffffffffffffffffffffffffffffffffff166117f88461064b565b73ffffffffffffffffffffffffffffffffffffffff16145b91505092915050565b8273ffffffffffffffffffffffffffffffffffffffff166118398261109f565b73ffffffffffffffffffffffffffffffffffffffff161461188f576040517f08c379a000000000000000000000000000000000000000000000000000000000815260040161188690613a90565b60405180910390fd5b600073ffffffffffffffffffffffffffffffffffffffff168273ffffffffffffffffffffffffffffffffffffffff1614156118ff576040517f08c379a00000000000000000000000000000000000000000000000000000000081526004016118f690613ad0565b60405180910390fd5b61190a83838361221f565b611915600082611610565b6001600360008573ffffffffffffffffffffffffffffffffffffffff1673ffffffffffffffffffffffffffffffffffffffff1681526020019081526020016000206000828254611965919061418a565b925050819055506001600360008473ffffffffffffffffffffffffffffffffffffffff1673ffffffffffffffffffffffffffffffffffffffff16815260200190815260200160002060008282546119bc9190613efe565b92505081905550816002600083815260200190815260200160002060006101000a81548173ffffffffffffffffffffffffffffffffffffffff021916908373ffffffffffffffffffffffffffffffffffffffff160217905550808273ffffffffffffffffffffffffffffffffffffffff168473ffffffffffffffffffffffffffffffffffffffff167fddf252ad1be2c89b69c2b068fc378daa952ba7f163c4a11628f55a4df523b3ef60405160405180910390a4611a7b838383612224565b505050565b611a88612848565b611a90612848565b60006001905060005b6004811015611b3f5760005b6004811015611b2b57604051806060016040528084815260200182815260200183815250848460108110611b02577f4e487b7100000000000000000000000000000000000000000000000000000000600052603260045260246000fd5b60200201819052508280611b1590614312565b9350508080611b2390614312565b915050611aa5565b508080611b3790614312565b915050611a99565b50819250505090565b611b50612876565b6000806000611b5d612876565b6000601d54905060005b6103e8811015611cf057600384611b7e9190613efe565b9350600444426020600a88611b939190614365565b600a8110611bca577f4e487b7100000000000000000000000000000000000000000000000000000000600052603260045260246000fd5b0154604051602001611bde939291906138d3565b6040516020818303038152906040528051906020012060001c611c019190614365565b9550600444426020600a85611c169190614365565b600a8110611c4d577f4e487b7100000000000000000000000000000000000000000000000000000000600052603260045260246000fd5b0154604051602001611c61939291906138d3565b6040516020818303038152906040528051906020012060001c611c849190614365565b945060405180604001604052808781526020018681525083826103e88110611cd5577f4e487b7100000000000000000000000000000000000000000000000000000000600052603260045260246000fd5b60200201819052508080611ce890614312565b915050611b67565b50819550505050505090565b60008487148015611d0c57508386145b15611d1a5760009050611d66565b8287148015611d2857508186145b15611d365760009050611d66565b6001611d4287866116c9565b611d4c89886116c9565b611d569190613efe565b1415611d655760019050611d66565b5b9695505050505050565b8173ffffffffffffffffffffffffffffffffffffffff168373ffffffffffffffffffffffffffffffffffffffff161415611ddf576040517f08c379a0000000000000000000000000000000000000000000000000000000008152600401611dd690613af0565b60405180910390fd5b80600560008573ffffffffffffffffffffffffffffffffffffffff1673ffffffffffffffffffffffffffffffffffffffff16815260200190815260200160002060008473ffffffffffffffffffffffffffffffffffffffff1673ffffffffffffffffffffffffffffffffffffffff16815260200190815260200160002060006101000a81548160ff0219169083151502179055508173ffffffffffffffffffffffffffffffffffffffff168373ffffffffffffffffffffffffffffffffffffffff167f17307eab39ab6107e8899845ad3d59bd9653f200f220920489ca2b5937696c3183604051611ed09190613a18565b60405180910390a3505050565b611ee8848484611819565b611ef484848484612229565b611f33576040517f08c379a0000000000000000000000000000000000000000000000000000000008152600401611f2a90613a70565b60405180910390fd5b50505050565b6060600082511415611f5c576040518060200160405280600081525090506120be565b60006040518060600160405280604081526020016149476040913990506000600360028551611f8b9190613efe565b611f959190613f54565b6004611fa1919061409c565b67ffffffffffffffff811115611fe0577f4e487b7100000000000000000000000000000000000000000000000000000000600052604160045260246000fd5b6040519080825280601f01601f1916602001820160405280156120125781602001600182028036833780820191505090505b509050600182016020820185865187015b8082101561207e576003820191508151603f8160121c168501518453600184019350603f81600c1c168501518453600184019350603f8160061c168501518453600184019350603f8116850151845360018401935050612023565b505060038651066001811461209a57600281146120ad576120b5565b603d6001830353603d60028303536120b5565b603d60018303535b50505080925050505b919050565b6000803390506120d360076123c0565b60006120df60076123d6565b905060008461c3506120f19190613f54565b905084601e60008481526020019081526020016000206000018190555080601e600084815260200190815260200160002060010181905550601c81908060018154018082558091505060019003906000526020600020016000909190919091505561215c83836123e4565b60405180604001604052806040518060400160405280600481526020017f7a6b31350000000000000000000000000000000000000000000000000000000081525081526020016121c1601e600086815260200190815260200160002060010154612402565b8152506009600084815260200190815260200160002060008201518160000190805190602001906121f39291906128a5565b5060208201518160010190805190602001906122109291906128a5565b50905050819350505050919050565b505050565b505050565b600061224a8473ffffffffffffffffffffffffffffffffffffffff166125af565b156123b3578373ffffffffffffffffffffffffffffffffffffffff1663150b7a02612273611608565b8786866040518563ffffffff1660e01b8152600401612295949392919061392b565b602060405180830381600087803b1580156122af57600080fd5b505af19250505080156122e057506040513d601f19601f820116820180604052508101906122dd9190612fe0565b60015b612363573d8060008114612310576040519150601f19603f3d011682016040523d82523d6000602084013e612315565b606091505b5060008151141561235b576040517f08c379a000000000000000000000000000000000000000000000000000000000815260040161235290613a70565b60405180910390fd5b805181602001fd5b63150b7a0260e01b7bffffffffffffffffffffffffffffffffffffffffffffffffffffffff1916817bffffffffffffffffffffffffffffffffffffffffffffffffffffffff1916149150506123b8565b600190505b949350505050565b6001816000016000828254019250508190555050565b600081600001549050919050565b6123fe8282604051806020016040528060008152506125d2565b5050565b6060600082141561244a576040518060400160405280600181526020017f300000000000000000000000000000000000000000000000000000000000000081525090506125aa565b600082905060005b6000821461247c57808061246590614312565b915050600a826124759190613f54565b9150612452565b60008167ffffffffffffffff8111156124be577f4e487b7100000000000000000000000000000000000000000000000000000000600052604160045260246000fd5b6040519080825280601f01601f1916602001820160405280156124f05781602001600182028036833780820191505090505b5090505b600085146125a357600182612509919061418a565b9150600a856125189190614365565b60306125249190613efe565b60f81b818381518110612560577f4e487b7100000000000000000000000000000000000000000000000000000000600052603260045260246000fd5b60200101907effffffffffffffffffffffffffffffffffffffffffffffffffffffffffffff1916908160001a905350600a8561259c9190613f54565b94506124f4565b8093505050505b919050565b6000808273ffffffffffffffffffffffffffffffffffffffff163b119050919050565b6125dc838361262d565b6125e96000848484612229565b612628576040517f08c379a000000000000000000000000000000000000000000000000000000000815260040161261f90613a70565b60405180910390fd5b505050565b600073ffffffffffffffffffffffffffffffffffffffff168273ffffffffffffffffffffffffffffffffffffffff16141561269d576040517f08c379a000000000000000000000000000000000000000000000000000000000815260040161269490613b90565b60405180910390fd5b6126a68161159c565b156126e6576040517f08c379a00000000000000000000000000000000000000000000000000000000081526004016126dd90613ab0565b60405180910390fd5b6126f26000838361221f565b6001600360008473ffffffffffffffffffffffffffffffffffffffff1673ffffffffffffffffffffffffffffffffffffffff16815260200190815260200160002060008282546127429190613efe565b92505081905550816002600083815260200190815260200160002060006101000a81548173ffffffffffffffffffffffffffffffffffffffff021916908373ffffffffffffffffffffffffffffffffffffffff160217905550808273ffffffffffffffffffffffffffffffffffffffff16600073ffffffffffffffffffffffffffffffffffffffff167fddf252ad1be2c89b69c2b068fc378daa952ba7f163c4a11628f55a4df523b3ef60405160405180910390a461280360008383612224565b5050565b6040518061020001604052806010905b61281f61292b565b8152602001906001900390816128175790505090565b6040518060200160405280600081525090565b6040518061020001604052806010905b61286061294d565b8152602001906001900390816128585790505090565b60405180617d0001604052806103e8905b61288f61296e565b8152602001906001900390816128875790505090565b8280546128b1906142af565b90600052602060002090601f0160209004810192826128d3576000855561291a565b82601f106128ec57805160ff191683800117855561291a565b8280016001018555821561291a579182015b828111156129195782518255916020019190600101906128fe565b5b5090506129279190612990565b5090565b6040518060a00160405280600590602082028036833780820191505090505090565b60405180606001604052806000815260200160008152602001600081525090565b6040518060400160405280600290602082028036833780820191505090505090565b5b808211156129a9576000816000905550600101612991565b5090565b60006129c06129bb84613c8b565b613c66565b905080828560408602820111156129d657600080fd5b60005b85811015612a0657816129ec8882612bda565b8452602084019350604083019250506001810190506129d9565b5050509392505050565b6000612a23612a1e84613cb1565b613c66565b90508082856060860282011115612a3957600080fd5b60005b85811015612a695781612a4f8882612ca6565b845260208401935060608301925050600181019050612a3c565b5050509392505050565b6000612a86612a8184613cd7565b613c66565b90508082856020860282011115612a9c57600080fd5b60005b85811015612acc5781612ab28882612d06565b845260208401935060208301925050600181019050612a9f565b5050509392505050565b6000612ae9612ae484613cfd565b613c66565b90508082856020860282011115612aff57600080fd5b60005b85811015612b2f5781612b158882612d06565b845260208401935060208301925050600181019050612b02565b5050509392505050565b6000612b4c612b4784613d23565b613c66565b905082815260208101848484011115612b6457600080fd5b612b6f84828561426d565b509392505050565b600081359050612b86816148ea565b92915050565b600082601f830112612b9d57600080fd5b6002612baa8482856129ad565b91505092915050565b600082601f830112612bc457600080fd5b6010612bd1848285612a10565b91505092915050565b600082601f830112612beb57600080fd5b6002612bf8848285612a73565b91505092915050565b600082601f830112612c1257600080fd5b6050612c1f848285612ad6565b91505092915050565b600081359050612c3781614901565b92915050565b600081519050612c4c81614901565b92915050565b600081359050612c6181614918565b92915050565b600081519050612c7681614918565b92915050565b600082601f830112612c8d57600080fd5b8135612c9d848260208601612b39565b91505092915050565b600060608284031215612cb857600080fd5b612cc26060613c66565b90506000612cd284828501612d06565b6000830152506020612ce684828501612d06565b6020830152506040612cfa84828501612d06565b60408301525092915050565b600081359050612d158161492f565b92915050565b600060208284031215612d2d57600080fd5b6000612d3b84828501612b77565b91505092915050565b60008060408385031215612d5757600080fd5b6000612d6585828601612b77565b9250506020612d7685828601612b77565b9150509250929050565b600080600060608486031215612d9557600080fd5b6000612da386828701612b77565b9350506020612db486828701612b77565b9250506040612dc586828701612d06565b9150509250925092565b60008060008060808587031215612de557600080fd5b6000612df387828801612b77565b9450506020612e0487828801612b77565b9350506040612e1587828801612d06565b925050606085013567ffffffffffffffff811115612e3257600080fd5b612e3e87828801612c7c565b91505092959194509250565b60008060408385031215612e5d57600080fd5b6000612e6b85828601612b77565b9250506020612e7c85828601612c28565b9150509250929050565b60008060408385031215612e9957600080fd5b6000612ea785828601612b77565b9250506020612eb885828601612d06565b9150509250929050565b60008060006106408486031215612ed857600080fd5b6000612ee686828701612bb3565b935050610600612ef886828701612d06565b925050610620612f0a86828701612d06565b9150509250925092565b6000806000806000610b208688031215612f2d57600080fd5b6000612f3b88828901612bda565b9550506040612f4c88828901612b8c565b94505060c0612f5d88828901612bda565b935050610100612f6f88828901612c01565b925050610b00612f8188828901612d06565b9150509295509295909350565b600060208284031215612fa057600080fd5b6000612fae84828501612c3d565b91505092915050565b600060208284031215612fc957600080fd5b6000612fd784828501612c52565b91505092915050565b600060208284031215612ff257600080fd5b600061300084828501612c67565b91505092915050565b60006020828403121561301b57600080fd5b600061302984828501612d06565b91505092915050565b6000806000806080858703121561304857600080fd5b600061305687828801612d06565b945050602061306787828801612d06565b935050604061307887828801612d06565b925050606061308987828801612d06565b91505092959194509250565b60006130a18383613221565b60408301905092915050565b60006130b98383613384565b60a08301905092915050565b60006130d183836137d0565b60608301905092915050565b60006130e98383613812565b60208301905092915050565b60006131018383613847565b60208301905092915050565b613116816141be565b82525050565b61312581613db5565b61312f8184613e73565b925061313a82613d54565b8060005b8381101561316b5781516131528782613095565b965061315d83613e18565b92505060018101905061313e565b505050505050565b61317c81613dc0565b6131868184613e7e565b925061319182613d5e565b8060005b838110156131c25781516131a987826130ad565b96506131b483613e25565b925050600181019050613195565b505050505050565b6131d381613dcb565b6131dd8184613e89565b92506131e882613d68565b8060005b8381101561321957815161320087826130c5565b965061320b83613e32565b9250506001810190506131ec565b505050505050565b61322a81613dd6565b6132348184613e94565b925061323f82613d72565b8060005b8381101561327057815161325787826130dd565b965061326283613e3f565b925050600181019050613243565b505050505050565b61328181613dd6565b61328b8184613e9f565b925061329682613d72565b8060005b838110156132c75781516132ae87826130dd565b96506132b983613e3f565b92505060018101905061329a565b505050505050565b6132d881613de1565b6132e28184613eaa565b92506132ed82613d7c565b8060005b8381101561331e57815161330587826130dd565b965061331083613e4c565b9250506001810190506132f1565b505050505050565b600061333182613dec565b61333b8185613eb5565b935061334683613d86565b8060005b8381101561337757815161335e88826130dd565b975061336983613e59565b92505060018101905061334a565b5085935050505092915050565b61338d81613df7565b6133978184613ec6565b92506133a282613d96565b8060005b838110156133d35781516133ba87826130f5565b96506133c583613e66565b9250506001810190506133a6565b505050505050565b6133e4816141d0565b82525050565b60006133f582613e02565b6133ff8185613ed1565b935061340f81856020860161427c565b61341881614452565b840191505092915050565b61342c81614249565b82525050565b600061343d82613e0d565b6134478185613ee2565b935061345781856020860161427c565b61346081614452565b840191505092915050565b600061347682613e0d565b6134808185613ef3565b935061349081856020860161427c565b80840191505092915050565b600081546134a9816142af565b6134b38186613ef3565b945060018216600081146134ce57600181146134df57613512565b60ff19831686528186019350613512565b6134e885613da0565b60005b8381101561350a578154818901526001820191506020810190506134eb565b838801955050505b50505092915050565b6000613528600283613ef3565b915061353382614463565b600282019050919050565b600061354b603283613ee2565b91506135568261448c565b604082019050919050565b600061356e600283613ef3565b9150613579826144db565b600282019050919050565b6000613591602583613ee2565b915061359c82614504565b604082019050919050565b60006135b4601c83613ee2565b91506135bf82614553565b602082019050919050565b60006135d7602483613ee2565b91506135e28261457c565b604082019050919050565b60006135fa601983613ee2565b9150613605826145cb565b602082019050919050565b600061361d600983613ef3565b9150613628826145f4565b600982019050919050565b6000613640602c83613ee2565b915061364b8261461d565b604082019050919050565b6000613663603883613ee2565b915061366e8261466c565b604082019050919050565b6000613686602a83613ee2565b9150613691826146bb565b604082019050919050565b60006136a9602983613ee2565b91506136b48261470a565b604082019050919050565b60006136cc602083613ee2565b91506136d782614759565b602082019050919050565b60006136ef602c83613ee2565b91506136fa82614782565b604082019050919050565b6000613712601383613ee2565b915061371d826147d1565b602082019050919050565b6000613735600a83613ef3565b9150613740826147fa565b600a82019050919050565b6000613758602183613ee2565b915061376382614823565b604082019050919050565b600061377b601d83613ef3565b915061378682614872565b601d82019050919050565b600061379e603183613ee2565b91506137a98261489b565b604082019050919050565b6020820160008201516137ca6000850182613812565b50505050565b6060820160008201516137e66000850182613812565b5060208201516137f96020850182613812565b50604082015161380c6040850182613812565b50505050565b61381b81614232565b82525050565b61382a81614232565b82525050565b61384161383c82614232565b61435b565b82525050565b6138508161423c565b82525050565b600061386182613728565b915061386d828561349c565b915061387882613561565b915061388382613610565b915061388f828461349c565b915061389a82613561565b91506138a58261351b565b91508190509392505050565b60006138bc8261376e565b91506138c8828461346b565b915081905092915050565b60006138df8286613830565b6020820191506138ef8285613830565b6020820191506138ff8284613830565b602082019150819050949350505050565b6000602082019050613925600083018461310d565b92915050565b6000608082019050613940600083018761310d565b61394d602083018661310d565b61395a6040830185613821565b818103606083015261396c81846133ea565b905095945050505050565b6000610a008201905061398d6000830184613173565b92915050565b6000610600820190506139a960008301846131ca565b92915050565b6000610b00820190506139c56000830187613278565b6139d2604083018661311c565b6139df60c0830185613278565b6139ed6101008301846132cf565b95945050505050565b60006020820190508181036000830152613a108184613326565b905092915050565b6000602082019050613a2d60008301846133db565b92915050565b6000602082019050613a486000830184613423565b92915050565b60006020820190508181036000830152613a688184613432565b905092915050565b60006020820190508181036000830152613a898161353e565b9050919050565b60006020820190508181036000830152613aa981613584565b9050919050565b60006020820190508181036000830152613ac9816135a7565b9050919050565b60006020820190508181036000830152613ae9816135ca565b9050919050565b60006020820190508181036000830152613b09816135ed565b9050919050565b60006020820190508181036000830152613b2981613633565b9050919050565b60006020820190508181036000830152613b4981613656565b9050919050565b60006020820190508181036000830152613b6981613679565b9050919050565b60006020820190508181036000830152613b898161369c565b9050919050565b60006020820190508181036000830152613ba9816136bf565b9050919050565b60006020820190508181036000830152613bc9816136e2565b9050919050565b60006020820190508181036000830152613be981613705565b9050919050565b60006020820190508181036000830152613c098161374b565b9050919050565b60006020820190508181036000830152613c2981613791565b9050919050565b6000602082019050613c4560008301846137b4565b92915050565b6000602082019050613c606000830184613821565b92915050565b6000613c70613c81565b9050613c7c82826142e1565b919050565b6000604051905090565b600067ffffffffffffffff821115613ca657613ca5614423565b5b602082029050919050565b600067ffffffffffffffff821115613ccc57613ccb614423565b5b602082029050919050565b600067ffffffffffffffff821115613cf257613cf1614423565b5b602082029050919050565b600067ffffffffffffffff821115613d1857613d17614423565b5b602082029050919050565b600067ffffffffffffffff821115613d3e57613d3d614423565b5b613d4782614452565b9050602081019050919050565b6000819050919050565b6000819050919050565b6000819050919050565b6000819050919050565b6000819050919050565b6000819050602082019050919050565b6000819050919050565b60008190508160005260206000209050919050565b600060029050919050565b600060109050919050565b600060109050919050565b600060029050919050565b600060509050919050565b600081519050919050565b600060059050919050565b600081519050919050565b600081519050919050565b6000602082019050919050565b6000602082019050919050565b6000602082019050919050565b6000602082019050919050565b6000602082019050919050565b6000602082019050919050565b6000602082019050919050565b600081905092915050565b600081905092915050565b600081905092915050565b600081905092915050565b600081905092915050565b600081905092915050565b600082825260208201905092915050565b600081905092915050565b600082825260208201905092915050565b600082825260208201905092915050565b600081905092915050565b6000613f0982614232565b9150613f1483614232565b9250827fffffffffffffffffffffffffffffffffffffffffffffffffffffffffffffffff03821115613f4957613f48614396565b5b828201905092915050565b6000613f5f82614232565b9150613f6a83614232565b925082613f7a57613f796143c5565b5b828204905092915050565b6000613f9082614208565b9150613f9b83614208565b9250827f7fffffffffffffffffffffffffffffffffffffffffffffffffffffffffffffff0482116000841360008413161615613fda57613fd9614396565b5b817f8000000000000000000000000000000000000000000000000000000000000000058312600084126000841316161561401757614016614396565b5b827f8000000000000000000000000000000000000000000000000000000000000000058212600084136000841216161561405457614053614396565b5b827f7fffffffffffffffffffffffffffffffffffffffffffffffffffffffffffffff058212600084126000841216161561409157614090614396565b5b828202905092915050565b60006140a782614232565b91506140b283614232565b9250817fffffffffffffffffffffffffffffffffffffffffffffffffffffffffffffffff04831182151516156140eb576140ea614396565b5b828202905092915050565b600061410182614208565b915061410c83614208565b9250827f80000000000000000000000000000000000000000000000000000000000000000182126000841215161561414757614146614396565b5b827f7fffffffffffffffffffffffffffffffffffffffffffffffffffffffffffffff01821360008412161561417f5761417e614396565b5b828203905092915050565b600061419582614232565b91506141a083614232565b9250828210156141b3576141b2614396565b5b828203905092915050565b60006141c982614212565b9050919050565b60008115159050919050565b60007fffffffff0000000000000000000000000000000000000000000000000000000082169050919050565b6000819050919050565b600073ffffffffffffffffffffffffffffffffffffffff82169050919050565b6000819050919050565b600060ff82169050919050565b60006142548261425b565b9050919050565b600061426682614212565b9050919050565b82818337600083830152505050565b60005b8381101561429a57808201518184015260208101905061427f565b838111156142a9576000848401525b50505050565b600060028204905060018216806142c757607f821691505b602082108114156142db576142da6143f4565b5b50919050565b6142ea82614452565b810181811067ffffffffffffffff8211171561430957614308614423565b5b80604052505050565b600061431d82614232565b91507fffffffffffffffffffffffffffffffffffffffffffffffffffffffffffffffff8214156143505761434f614396565b5b600182019050919050565b6000819050919050565b600061437082614232565b915061437b83614232565b92508261438b5761438a6143c5565b5b828206905092915050565b7f4e487b7100000000000000000000000000000000000000000000000000000000600052601160045260246000fd5b7f4e487b7100000000000000000000000000000000000000000000000000000000600052601260045260246000fd5b7f4e487b7100000000000000000000000000000000000000000000000000000000600052602260045260246000fd5b7f4e487b7100000000000000000000000000000000000000000000000000000000600052604160045260246000fd5b6000601f19601f8301169050919050565b7f7d2c000000000000000000000000000000000000000000000000000000000000600082015250565b7f4552433732313a207472616e7366657220746f206e6f6e20455243373231526560008201527f63656976657220696d706c656d656e7465720000000000000000000000000000602082015250565b7f222c000000000000000000000000000000000000000000000000000000000000600082015250565b7f4552433732313a207472616e736665722066726f6d20696e636f72726563742060008201527f6f776e6572000000000000000000000000000000000000000000000000000000602082015250565b7f4552433732313a20746f6b656e20616c7265616479206d696e74656400000000600082015250565b7f4552433732313a207472616e7366657220746f20746865207a65726f2061646460008201527f7265737300000000000000000000000000000000000000000000000000000000602082015250565b7f4552433732313a20617070726f766520746f2063616c6c657200000000000000600082015250565b7f227374657073223a200000000000000000000000000000000000000000000000600082015250565b7f4552433732313a206f70657261746f7220717565727920666f72206e6f6e657860008201527f697374656e7420746f6b656e0000000000000000000000000000000000000000602082015250565b7f4552433732313a20617070726f76652063616c6c6572206973206e6f74206f7760008201527f6e6572206e6f7220617070726f76656420666f7220616c6c0000000000000000602082015250565b7f4552433732313a2062616c616e636520717565727920666f7220746865207a6560008201527f726f206164647265737300000000000000000000000000000000000000000000602082015250565b7f4552433732313a206f776e657220717565727920666f72206e6f6e657869737460008201527f656e7420746f6b656e0000000000000000000000000000000000000000000000602082015250565b7f4552433732313a206d696e7420746f20746865207a65726f2061646472657373600082015250565b7f4552433732313a20617070726f76656420717565727920666f72206e6f6e657860008201527f697374656e7420746f6b656e0000000000000000000000000000000000000000602082015250565b7f766572696669636174696f6e206661696c656400000000000000000000000000600082015250565b7f7b226e616d65223a202200000000000000000000000000000000000000000000600082015250565b7f4552433732313a20617070726f76616c20746f2063757272656e74206f776e6560008201527f7200000000000000000000000000000000000000000000000000000000000000602082015250565b7f646174613a6170706c69636174696f6e2f6a736f6e3b6261736536342c000000600082015250565b7f4552433732313a207472616e736665722063616c6c6572206973206e6f74206f60008201527f776e6572206e6f7220617070726f766564000000000000000000000000000000602082015250565b6148f3816141be565b81146148fe57600080fd5b50565b61490a816141d0565b811461491557600080fd5b50565b614921816141dc565b811461492c57600080fd5b50565b61493881614232565b811461494357600080fd5b5056fe4142434445464748494a4b4c4d4e4f505152535455565758595a6162636465666768696a6b6c6d6e6f707172737475767778797a303132333435363738392b2fa264697066735822122018eb118052f277bb43c56329708f28800dc4a1dc52ca22a74d0c75b5387fcf3a64736f6c63430008040033",
  "linkReferences": {},
  "deployedLinkReferences": {}
}